S01800006275696C642F6D6963617A2F6D61696E2E73726563E5
S11300000C9449000C940F050C9419050C942305C9
S11300100C942D050C9437050C9441050C94FE09A1
S11300200C944B050C9468000C9468000C946913B0
S11300300C9407150C94D9040C94EF040C945505F6
S11300400C94C8040C94760C0C9468000C9468000E
S11300500C9468000C9468000C9468000C9468007C
S11300600C94E4040C9468000C9468000C946800EC
S11300700C9468000C9468000C9468000C9468005C
S11300800C9468000C9468000C94680000081C1818
S1130090141011241FBECFEFD0E1DEBFCDBF11E09D
S11300A0A0E0B1E0EEECFFE200E00BBF02C007907D
S11300B00D92A232B107D9F712E0A2E2B1E001C079
S11300C01D92A834B107E1F70E9495110C94E6172C
S11300D00C9400008FB7F894992708958FBF089562
S11300E0FC0182819927582F442781819927482B25
S11300F0592BCA01892F992786958695837090700C
S11301008230910559F08330910559F0892B19F407
S113011020E030E008C02CE93FEF05C022E030E0E9
S113012002C028E030E0CA0184E0989F812D99271D
S113013011248230910559F08330910559F0892BAF
S113014019F480E090E008C08CE99FEF05C082E0DC
S113015090E002C088E090E0280F391F2A5F3F4FEB
S1130160CF01820F931F0895282F9FB7F894662319
S113017049F0E82FFF27E853FE4F8081882311F0D0
S113018021E006C0E22FFF27E853FE4F608320E002
S1130190892F99278FBF822F99270895E82F8FB72A
S11301A0F894282F332790E0FF27E853FE4F8081EF
S11301B0861709F491E02FBF892F99270895882382
S11301C011F06E9A08956E980895882311F06F9A2D
S11301D008956F98089580E00E94DF00BA9ABB9852
S11301E0B99AB89A6C9A80E00E94E5006B986A9874
S11301F081E00E94DF00709A8DB18C7F8DB90895E3
S1130200282F9FB7F894E82FFF27E55BFE4F8081E6
S11302108F3F81F4E0914002E21771F40BC0209308
S1130220320204C0FF27E55BFE4F20832093400287
S113023020E007C025E005C0809132028F3F91F78E
S1130240EECF892F99278FBF822F992708950F9377
S11302501F93182F0FB7F89461E080E00E94B40058
S1130260882371F51093170180911A018823A9F549
S113027080912701823089F588E00CC00E94EB0050
S113028080912701882349F481E08093270110920B
S113029061018AE00E9400012AC0809173018F3FAE
S11302A031F5E0911901EE2311F11CC010921801EF
S11302B004C0FF27ED58FE4F10821092190117C099
S11302C081E090E002C0880F991F1A95E2F720910F
S11302D02601282B209326010AC080912701882318
S11302E0E1F6CCCF809118018F3F19F7DFCF802F33
S11302F099278FBF80E090E01F910F9108951F937D
S1130300182F81E00E94DF001FB9779BFECF8FB1C9
S113031099271F9108958F929F92AF92BF92CF9287
S1130320DF92EF92FF920F931F93CF93DF938FB7D8
S1130330F8949927C0903B02D0903C028090C10170
S11303409090C201C0918501D09186012091300125
S113035030913101EAE0AE2EB12CAC0EBD1E2A154F
S11303603B0508F459018FBF7401EC0EFD1E860194
S11303700C0F1D1F14C0C114D10419F0F8018081A1
S113038001C080E00E947F018114910411F0F70103
S1130390808321960894E11CF11C0F5F1F4FC50157
S11303A00197C817D90738F381E00E94E5009FB789
S11303B0F894C114D10431F0CC0EDD1EF601808115
S11303C08FB901C01FB8D0938601C0938501892FCE
S11303D099278FBF80E090E0DF91CF911F910F911B
S11303E0FF90EF90DF90CF90BF90AF909F908F9051
S11303F008952FB7F8943327509331014093300177
S113040090933C0280933B027093C2016093C101BC
S113041010928601109285012FBF452B29F08FB1D0
S11304200E948B019927089589E00E94000180E0D1
S113043090E008958FB7F89499271092CA018FBF5E
S113044008957FB7F89462B7209133013091340155
S1130450409135015091360106B601FE0FC081B7B7
S113046092B7280F311D411D511D2F5F3F4F4F4F34
S11304705F4F290F311D411D511D04C0260F311D31
S1130480411D511D872F99278FBFCA01B9010895B6
S11304902F923F924F925F926F927F928F929F9290
S11304A0AF92BF92CF92DF92EF92FF920F931F937E
S11304B0CF93DF93CDB7DEB729970FB6F894DEBF9D
S11304C00FBECDBF6FB76983F89420906A01309056
S11304D06B0140906C0150906D0166247724882450
S11304E0BEE4AB2EA3E8BA2ECC24DD24EE24FF24F4
S11304F000E010E0222D332D442D552D662D772D4F
S1130500882D90E00E9495152A833B834C835D835C
S11305106E837F8388879987822E932EA42EB52E8F
S11305202401350100E20E949316A22EB32EC42E9C
S1130530D52EA301920156954795379527952A0DF7
S11305403B1D4C1D5D1D57FF05C05F772F5F3F4F5F
S11305504F4F5F4F20936A0130936B0140936C01BE
S113056050936D01E9818E2F99278FBFCA01B9017C
S113057029960FB6F894DEBF0FBECDBFDF91CF91A1
S11305801F910F91FF90EF90DF90CF90BF90AF90AD
S11305909F908F907F906F905F904F903F902F909F
S11305A00895DF92EF92FF920F931F938FB7F89401
S11305B0282F3327D22E91B782B746B7981711F058
S11305C041FF02C02FBF6AC0809184018823E1F1FA
S11305D00E942102E090C401F090C5010091C6017F
S11305E01091C70120914501309146014091470186
S11305F0509148016E197F09800B910B62177307A4
S11306008407950720F01092840171E01EC02E0D1E
S11306103F1D401F511F8091330190913401A091DF
S11306203501B0913601281B390B4A0B5B0B273E71
S113063031054105510540F4822F223010F070E05D
S113064005C070E082E002C070E086EE682F615061
S113065000B601FCFDCF82B7681709F46F5F2091E3
S11306603301309134014091350150913601DA0162
S1130670C9010196A11DB11D860F911DA11DB11DBA
S113068082179307A407B50710F4622F609561BF22
S1130690DFBE772319F08CE00E9400011F910F91B7
S11306A0FF90EF90DF900895AFB7F894BB27E1E097
S11306B0E09384016093C4017093C5018093C601E3
S11306C09093C7012093450130934601409347011D
S11306D050934801AFBF0E94D102089580E88093EF
S11306E04901109264011092350210923102109265
S11306F060010895CF93DF93FC0115A6DC019E965B
S1130700ED011B821A82198280E886A7DF91CF91BE
S113071008958FB7F8946091890170918A012CB57E
S11307203DB506B602FE04C06F5F7F4F2CB53DB5E4
S113073099278FBF88279927CB01772766274427D6
S11307405527622B732B842B952B0895EF92FF92E0
S11307500F931F930E9489037B018C0120917401E4
S113076030917501409176015091770180916F012C
S113077090917001A0917101B0917201820F931F49
S1130780A41FB51FE216F3060407150730F08217FD
S11307909307A407B50758F005C082179307A40769
S11307A0B507E0F5E816F9060A071B07B8F59C013A
S11307B0AD012E193F09400B510B213060E836077B
S11307C060E0460760E0560768F180E090E8A0E04A
S11307D0B0E0E80EF91E0A1F1B1FE0927401F092AC
S11307E07501009376011093770180E090E8AFEFF4
S11307F0BFEFE80EF91E0A1F1B1F2050304840406F
S1130800504020936F0130937001409371015093D5
S1130810720120E030E840E050E014C020E030E015
S113082040E050E08093740190937501A0937601A9
S1130830B093770110926F011092700110927101C0
S113084010927201A901B7012CB53DB5C9018E19E9
S11308509F0903968417950720F0B9016D5F7F4FB8
S113086002C0640F751F6115710511F461E070E039
S1130870615070407BBD6ABD80E186BF87B78061EF
S113088087BF1F910F91FF90EF9008950F931F93CF
S11308900FB7F894112760937401709375018093D6
S11308A076019093770120936F0130937001409308
S11308B07101509372010E94A6030FBF1F910F9103
S11308C0089597B79F7D97BF90E296BF882319F04C
S11308D08EB5806402C08EB58F7B8EBD87B7806273
S11308E087BF80E090E00895AF92BF92CF92DF92ED
S11308F0EF92FF920F931F93CF93DF93CDB7DEB7A1
S113090028970FB6F894DEBF0FBECDBF20E070E08D
S1130910E0911401F091150132E14DE65CE46FE4DD
S1130920809115019E2F28960FB6F894DEBF0FBE56
S1130930CDBFDF91CF911F910F91FF90EF90DF908A
S1130940CF90BF90AF900895DF92EF92FF920F93F4
S11309501F93D82E7A018B010E94210229E0D29E96
S1130960F0011124E557FE4F6083718382839383E2
S1130970E482F582068317838085836080878DE017
S11309800E9400011F910F91FF90EF90DF90089556
S11309901F920F920FB60F9211248F9383B783BFC8
S11309A000B600FCFDCF8F910F900FBE0F901F90EB
S11309B0189578941F920F920FB60F9211240F90EE
S11309C00FBE0F901F90189578941F920F920FB638
S11309D00F9211240F900FBE0F901F9018957894CA
S11309E01F920F920FB60F9211242F933F938F9360
S11309F09F932FB7F89433278091890190918A01AE
S1130A00019690938A01809389012FBF9F918F91C2
S1130A103F912F910F900FBE0F901F9018951F922A
S1130A200F920FB60F9211240F900FBE0F901F90CC
S1130A3018951F920F920FB60F9211240F900FBEAC
S1130A400F901F9018951F920F920FB60F921124BA
S1130A500F900FBE0F901F9018951F920F920FB614
S1130A600F9211240F900FBE0F901F9018951F9294
S1130A700F920FB60F9211240F900FBE0F901F907C
S1130A8018951F920F920FB60F9211240F900FBE5C
S1130A900F901F9018951F920F920FB60F9211246A
S1130AA00F900FBE0F901F9018951F920F920FB6C4
S1130AB00F9211242F933F934F935F936F937F93E0
S1130AC08F939F93AF93BF93EF93FF9383B783BFAA
S1130AD000B600FCFDCF81B799270196AA27BB2752
S1130AE02091330130913401409135015091360108
S1130AF0280F391F4A1F5B1F2093330130933401A1
S1130B00409335015093360178940E94D102FF91AD
S1130B10EF91BF91AF919F918F917F916F915F9171
S1130B204F913F912F910F900FBE0F901F901895EA
S1130B300F931F93CF93DF93182F8FB7F894C82F79
S1130B40DD270C2F61E080E00E94B400882321F0AF
S1130B50CFBF85E090E024C080911A018823A1F4DE
S1130B6080912701823081F409C082E080932701BB
S1130B7010921A010E94EB00B89AC09810931701C2
S1130B8080E00FBF99270CC080912701882369F367
S1130B908FB7F89499271092C8018FBF81E0F1CFE5
S1130BA0DF91CF911F910F9108951F9383E00E94CD
S1130BB098059927182F882319F083E00E942701AC
S1130BC0812F99271F9108951F93809126018823CF
S1130BD009F04BC0109117011F3F09F046C060E0B7
S1130BE00E94CE00882309F440C081E08093D7019D
S1130BF080914A018823E1F11092D70185E090E0C9
S1130C0045C0923069F5C09A8091180120E030E027
S1130C108F3F11F421E030E0232BE9F410931A0103
S1130C208F3F19F42FEF30E00DC0282F3327F9013F
S1130C30ED58FE4F8081809318018F3F11F410937B
S1130C40190110832093610181E0809327018AE0D8
S1130C500E94000105C010931A011092270111C0CF
S1130C6080912701882369F00FC081E090E00EC0D5
S1130C7080911A0190912701882319F2923021F072
S1130C80EFCF80E00E94DF0080E090E01F910895A4
S1130C901F93CF93DF939FB7F894C92FDD271C2FA1
S1130CA090911701981721F0CFBF81E090E03AC0EE
S1130CB08FEF80931701309126013323F1F48FB71E
S1130CC0F89499271092C8018FBF0E94E405CFBF02
S1130CD011C02093170181E090E002C0880F991F92
S1130CE04A95E2F7809538233093260188E00E94E4
S1130CF000011FBF80E090E015C080E065E0E32FB5
S1130D00FF270E941617292F492F5527CF01042E9C
S1130D1002C0959587950A94E2F780FDDACF822F79
S1130D208F5FEFCFDF91CF911F910895AF92BF9264
S1130D30CF92DF92EF92FF920F931F93CF93DF93A3
S1130D405B016C01C0E0D0E0EBE8F1E0608561FF9D
S1130D502AC02081318142815381E480F58006815B
S1130D601781D601C501821B930BA40BB50B8E15FD
S1130D709F05A007B107B8F060FF03C06D7F6087CF
S1130D8008C02E0D3F1D401F511F20833183428315
S1130D905383C43019F0C53059F402C00E9448028C
S1130DA00E94480205C021963996C630D10571F6D5
S1130DB08DE00E940001DF91CF911F910F91FF9070
S1130DC0EF90DF90CF90BF90AF900895FF920F9374
S1130DD01F93CF93DF93F82E8B018FB7F894C82F0E
S1130DE0DD2760E080E00E94CE00882321F0CFBFA1
S1130DF080E090E00CC0CFBF8F2D0E947F01812F37
S1130E0099270E947F01802F0E947F019927DF91FB
S1130E10CF911F910F91FF9008951F931FB7F894DE
S1130E2080915F01882319F460E070E009C060E0FC
S1130E3080913A02882309F461E081E068277727EA
S1130E4080916701882319F480E090E00AC090E063
S1130E508091CD01882309F491E081E09827892FBE
S1130E609927762F6627770F770F770FE4E0880F9F
S1130E70991FEA95E1F7826E9262682B792B81E1E2
S1130E800E94E606812F99278FBF1F9108958FB77F
S1130E90F89499276091D6018FBF85E0689FB001CF
S1130EA01124625D7E4F706488E10E94E606089515
S1130EB0EF92FF921F93CF93DF93E0906801F0903D
S1130EC06901F70182A59927182F882309F41FE1E6
S1130ED0C09880915E01811749F0612F77276F7167
S1130EE07070606E706885E10E94E60610935E0182
S1130EF0F70110818FB7F894C82FDD2760E080E0F8
S1130F000E94CE00882311F0CFBF12C0CFBF8EE362
S1130F1090E090937D0180937C018EE30E947F0199
S1130F201150412F552760E070E0C7010E94F9017C
S1130F30DF91CF911F91FF90EF9008950F931F932E
S1130F40CF93DF93EC010FB7F89411270E94700040
S1130F50FC018FE380830FBF109238021092370296
S1130F6061E082E00E94B400882319F085E090E0FB
S1130F7072C08091D8018F5F8093D80181508B8398
S1130F808FB7F894082F112762E081E00E94CE0009
S1130F90882329F40FBF0E941A0281E05BC08FB737
S1130FA0F894992724E02093C9018FBFD09383013B
S1130FB0C09382010FBFFE01319681812981992757
S1130FC0982F88273327822B932B80729C7C8983CC
S1130FD0892F992781832981982F88273327216492
S1130FE0822B932B8983892F992781831CA618A68A
S1130FF019A619AA18AA1FA680E88EA761E0609313
S1131000CC0140918201509183018FB7F894282F2D
S1131010332780912801909129018830910511F09E
S1131020019711F02FBF15C082E090E09093290141
S113103080932801609341025093690140936801B1
S1131040109232012FBF0E94D505882311F40E940B
S1131050580780E09927DF91CF911F910F91089550
S1131060CF93DF9310921601A0918701B09188016C
S1131070109721F08091360280FF6DC081E080934B
S1131080160172C09927982F88273327822B932B18
S1131090ED014B878E83892F99278F832FB7F8947F
S11310A0332780916501909166012FBFFD018483F0
S11310B0892F992785832FB7F894332780911B01B3
S11310C090911C012FBF8887892F99278987319692
S11310D0818129819927982F8827332720643868AC
S11310E0822B932B8983892F99278183635F6C9348
S11310F06D5080911E01882351F010921E01CD0184
S11311000E949E079927282F8823A9F417C0862FA9
S113111099279093810180938001B0932D01A0932E
S11311202C018EE00E94000180911E01882349F465
S113113089E090E00AC08FEF80931E01822F9927E7
S113114004C010926E0180E090E0892B69F081E088
S11311500E94000109C0FD014385878126816C91AD
S11311606D506D31A0F78ECFDF91CF9108958091AE
S11311701601882369F4809187019091880186176C
S1131180970731F410928801109287010E94300869
S11311900895CF92DF92EF92FF920F931F93CF9314
S11311A0DF938C01F62E6A01E22E8FB7F894C82FD4
S11311B0DD2760E080E00E94CE00882321F0CFBFCD
S11311C080E090E01EC0CFBF0F0D111D802F8068FE
S11311D00E947F01F82E16950795802F807C0E942F
S11311E07F010E2D0AC0EE2DFF27E01BF109EC0D47
S11311F0FD1D80810E947F0101500023A1F78F2DE6
S11312009927DF91CF911F910F91FF90EF90DF907D
S1131210CF900895CF93DF93CDB7DEB72C970FB659
S1131220F894DEBF0FBECDBF8FB7F894282FAE0160
S11312304F5F5F4FDA01EEECF1E088E001900D9230
S11312408150E1F780916501909166018987892F2A
S113125099278A8780917801909179018B87892FCA
S113126099278C872FBF2CE060E080E691E00E94F4
S1131270C9082C960FB6F894DEBF0FBECDBFDF9120
S1131280CF9108951F93CF93DF93182F8FB7F894BE
S1131290C82FDD2760E080E00E94CE00882321F083
S11312A0CFBF80E090E005C0CFBF812F0E947F01B7
S11312B09927DF91CF911F910895EF92FF920F9399
S11312C01F93CF93DF93182F7B01042F8FB7F894CC
S11312D0C82FDD2760E080E00E94CE00882321F043
S11312E0CFBF80E090E014C0CFBF1064812F992756
S11312F090937D0180937C010E947F01182F402FE1
S11313005527B70180E090E00E94F901812F9927C9
S1131310DF91CF911F910F91FF90EF900895C098A6
S113132060912E0170912F0141E08FE30E945D09CD
S1131330089582E090E090935B0180935A0181E0EC
S11313408093640120E030E080911701843011F42F
S113135021E030E0232B29F484E00E9498058823BF
S113136019F40E948F09089584E00E9427010895CA
S11313701F93CF93DF938FB7F894C82FDD271C2FCB
S113138080915A0190915B01892B29F484E00E9499
S11313904806CFBF1EC0109264018091600188236B
S11313A011F0B79904C00E9908C0882319F0815030
S11313B0809360010E9499090BC081E090E09093B2
S11313C05B0180935A011092600184E00E944806F8
S11313D01FBFDF91CF911F9108950E946E03C09AA1
S11313E0C09888E00E94420988E00E944209C09A9D
S11313F084E00E9448060E94B80908951F920F9243
S11314000FB60F9211242F933F934F935F936F93D3
S11314107F938F939F93AF93BF93EF93FF938091A9
S11314205A0190915B01019749F482E090E0909316
S11314305B0180935A010E94990905C08091600163
S11314408F5F80936001FF91EF91BF91AF919F9166
S11314508F917F916F915F914F913F912F910F9059
S11314600FBE0F901F9018951F93182F81E090E0E6
S1131470909329018093280110924A010E94E40567
S11314808FB7F8949927109322018FBF84E00E94AC
S113149000011F910895CF92DF92EF92FF920F9374
S11314A01F93CFB6F894DD240E944802DC01CB01DF
S11314B066E470E00E9422171BE0E12EF12CE80E96
S11314C0F91EF0923E02E0923D020E948903002739
S11314D01127A80197010E944604CFBE1F910F91C6
S11314E0FF90EF90DF90CF9008951F93CF93DF93F9
S11314F08FB7F894C82FDD271C2F80912801909175
S113150029010897C9F489E00E94420983E00E94F6
S11315104806C09A81E090E09093290180932801C5
S11315208FB7F894992723E0209322018FBF84E09A
S11315300E940001CFBF30C0C0988091410288232F
S113154011F085E001C084E00E94420983FD09C0D6
S113155080E00E94420983FF04C085E090E020E01F
S113156003C083E090E021E0909329018093280157
S1131570C09A1FBF222341F01092320183E00E94DF
S113158048060E944B0A08C00E94890320E431E007
S113159040E050E00E944604DF91CF911F910895EE
S11315A0EF92FF920F931F93CF93DF938B01809160
S11315B07C0190917D0186FF40C18F7B8F3309F0C0
S11315C08EC1C0912E01D0912F01588150935C019E
S11315D080915A0190915B018530910509F443C0D3
S11315E08630910509F48AC0029709F01FC185E08D
S11315F090E090935B0180935A0140914901852FBB
S113160099270196242F3327281739074CF1B799C6
S113161006C00E9904C0451B4150409349014091B6
S11316205C014A32E8F44423A1F0BE016F5F7F4FAE
S1131630483018F047E050E007C086E090E090930F
S11316405B0180935A01552780E090E00E94F901E4
S113165046C110926401C09A84E00E944806E3C027
S11316600E94ED093CC186E090E090935B01809379
S11316705A0180916701882309F439C08091CD0112
S11316808823A9F5898185FF32C08F814E812FB7C8
S1131690F894332760917801709179012FBF9927CD
S11316A0982F88275527842B952B8617970759F051
S11316B08F812E819927982F88273327822B932B6C
S11316C08F5F9F4FA1F489818770813081F4C09A24
S11316D0C0988AE00E944209C09AC09840915C0177
S11316E047502896BE018FE30E945D09F8C04091DF
S11316F05C01475055272896BE01A6CFC09A809119
S11317006001882339F484E00E94480680916001D6
S1131710882311F0B7990AC00E9B08C0909131023A
S1131720992321F080915C018B3038F480912E0153
S113173090912F010E947A033DC0913001F5E09110
S11317403502FF27EE0FFF1FEE0FFF1FE352FE4F80
S11317502081318142815381E0912E01F0912F014A
S113176021ABBB27A52F942F832F80ABCA01AA27B7
S1131770BB2787A7252F33274427552726A78091E2
S113178035029927019668E070E00E94361780932D
S1131790350280913102815080933102882351F0C7
S11317A080912E0190912F010E947A0310923502AC
S11317B01092310280915C01FE01E80FF11D8081DD
S11317C087FF31C0012B79F169816770E0912E01A7
S11317D0F0912F01623019F5A0916801B09169016F
S11317E0109709F180912801909129010797D9F464
S11317F0ED019B8183819817B1F487B78F7E87BFF2
S1131800908181E08CA7E90FF11D8291319688A720
S113181080818F7789A780E00E94340A04C06130F8
S113182011F48BE02AC00E94B80959C010926401D7
S1131830C09A84E00E94480652C08E3309F04FC01B
S1131840C09A80912801909129010897C9F4C09801
S113185089E00E944209C09A83E00E94480681E020
S113186090E090932901809328018FB7F8949927E9
S113187023E0209322018FBF84E00E9400012FC047
S113188080914102882349F484E090E090932901F7
S1131890809328010E94750A22C083E00E944806B2
S11318A083E090E090932901809328010E944802EC
S11318B0DC01CB0166E371E00E9422170BE0E02E0D
S11318C0F12CE80EF91EF0924401E09243010E94CB
S11318D0890300271127A80197010E944604DF917C
S11318E0CF911F910F91FF90EF9008951F920F9247
S11318F00FB60F9211242F933F934F935F936F93DF
S11319007F938F939F93AF93BF93EF93FF932FB1E5
S1131910E091C101F091C201309739F080918501C5
S113192090918601E80FF91F2083809185019091A1
S113193086010196909386018093850180E00E9440
S1131940E5004091300150913101809185019091E1
S113195086018417950718F40E948B011CC06091BE
S1131960C1017091C20180913B0290913C0210929E
S1131970C2011092C10110923C0210923B021092DB
S113198031011092300110928601109285012FB11D
S113199020E00E94D00AFF91EF91BF91AF919F91F7
S11319A08F917F916F915F914F913F912F910F9004
S11319B00FBE0F901F901895AF92BF92CF92DF92F7
S11319C0EF92FF920F931F93CF93DF93CDB7DEB7C0
S11319D0A8970FB6F894DEBF0FBECDBF873009F4C9
S11319E016C1883090F4833009F498C0843030F400
S11319F08130E9F1823008F046C01DC0853009F419
S1131A00E5C0863008F0FDC090C08B3009F42CC2CC
S1131A108C3038F4893009F4F0C18A3008F010C2EF
S1131A202FC18D3009F4D5C38D3008F49FC38E3097
S1131A3009F04DC426C480913602882309F447C4B2
S1131A4021E0E7E8F1E090913602822F892339F012
S1131A5011821082822F80959823909336023296B9
S1131A6031E0E739F30709F432C4220FECCFE091F7
S1131A701601FF27EE0FFF1FE957FE4F1182108258
S1131A800E94300824C40FB7F894112781E00E9403
S1131A90610451E0E52EF12CF0922901E092280135
S1131AA010922A0110924A0110925E010FBF0FB7E3
S1131AB0F89411270E946E03F0925B01E0925A01A0
S1131AC01092640189B78F7B89BF80E488BF8AB78D
S1131AD080628ABF8AB78F7E8ABF89B7806489BFD4
S1131AE00FBF8FB7F894082F11278091230190918D
S1131AF02401049719F483E00E9442090FBF0FB731
S1131B00F8941127C09A80E00E9448060FBF8FB74F
S1131B10F894992722E02093C90105C08FB7F8945F
S1131B2099271092C9018FBFD2C38FB7F894992710
S1131B30F09022018FBF63E081E00E94CE008823F1
S1131B4059F10FB7F8941127109229011092280126
S1131B5087B78F7E87BF87B78F7D87BF83E00E945B
S1131B604806C09A0FBF0FB7F894112710925B0173
S1131B7010925A010E946E03C09A89B78F7B89BF65
S1131B800FBF1092240110922301DE98DD98DE9A93
S1131B9083E00E94000107C08FB7F894992722E0E0
S1131BA02093C9018FBF00918201109183010E948B
S1131BB01A028091370290913802892B09F087C369
S1131BC08FEF80931E014F2DB80179C38FB7F8941E
S1131BD0282F3327122F80913F02882301F581E0BB
S1131BE080933F028091230190912401049721F472
S1131BF081E00E94270103C086E00E9400011FBF0C
S1131C0066C38FB7F894992710923F028CCF8FB791
S1131C10F894282F332780912501882311F02FBFB2
S1131C2056C32FBF80B3992746E0969587954A956A
S1131C30E1F7182F117090917A0180917B01891737
S1131C40D9F01917C9F484E090E0909324018093AB
S1131C5023018FB7F894992721E0209325018FBFA2
S1131C6060E070E08DE10E94E6060E940A09C09AD5
S1131C70C09882E00E94000110937B0187E06DC050
S1131C808FB7F8949927109117018FBF123009F478
S1131C9067C0133030F4112359F0113009F017C321
S1131CA048C0133009F476C0143009F010C3A2C040
S1131CB0C0988FB7F894082F112780912301909131
S1131CC024010297A1F583E090E09093240180938E
S1131CD0230168E170E08DE10E94E60681E08093D3
S1131CE07A011092250180B3992736E0969587955D
S1131CF03A95E1F78170907080937B0187E00E94B0
S1131D00000181E00E9442096FE772E08CE10E94C9
S1131D10E6060E9447070E940D0766E57AE287E11E
S1131D200E94E6066FEF70E885E10E94E6060FBFA9
S1131D30CEC2C09886E00E9442090E9447070E94D2
S1131D400D070E940A09C09AC09883E00E944209C4
S1131D50C09A81E00E94480686E00E940001B7C252
S1131D60C0988FB7F894082F112760E080E00E9494
S1131D70CE00882311F00FBF0AC00FBF83E50E9475
S1131D807F0180E00E947F0180E00E947F01C09A71
S1131D9082E02DC08FB7F8949927209128018FBF36
S1131DA0243039F0283041F0223001F50E945807E0
S1131DB08EC20E94750A8BC2C09889E00E944209B3
S1131DC0C09A83E00E9448068FB7F894992721E0CF
S1131DD030E030932901209328018FBF8FB7F89406
S1131DE09927109322018FBF84E0B7CF83E00E942C
S1131DF048066DC20E948F096AC20FB7F894112772
S1131E0040913001509131016091C1017091C20142
S1131E1080913B0290913C021092C2011092C10148
S1131E2010923C0210923B02109231011092300148
S1131E30109286011092850120E00E94D00A77CF8B
S1131E402FB7F89433278091610180931A0182E0BF
S1131E50809327012FBF80911A01882309F037C28C
S1131E60B89AC09888E079CFA0912E01B0912F0143
S1131E701C919D01210F311DF9018081881F882744
S1131E80881FFD0183A7F90180818F77FD0181A758
S1131E9021503040F9018081FD0180A7A0912E01DD
S1131EA0B0912F01FD0132818FB7F89499272091C9
S1131EB05F018FBF222309F490C0832F9927969541
S1131EC0879596958795837090708230910541F53A
S1131ED0878146812FB7F8943327609178017091F8
S1131EE079012FBF9927982F88275527842B952B65
S1131EF08617970719F481E090E06CC0FD01878193
S1131F00268140E050E09927982F88273327822B99
S1131F10932B8F5F9F4F11F441E050E0CA015AC0E8
S1131F20039709F01AC19E012F5F3F4F4EEC51E019
S1131F3088E0FA010190AF01F90101929F018150FB
S1131F40C1F79E012F5D3F4FAE014F5F5F4F88E0A9
S1131F50FA010190AF01F90101929F018150C1F78B
S1131F609E01275F3F4FAE014F5D5F4F88E0FA014E
S1131F700190AF01F90101929F018150C1F79E01C7
S1131F802F5E3F4FAE01475F5F4F88E0FA0101903B
S1131F90AF01F90101929F018150C1F79E01275EB3
S1131FA03F4FAE014F5E5F4F88E0FA010190AF01F1
S1131FB0F90101929F018150C1F748E050E0BE0150
S1131FC0675E7F4FCD0106960E949F17892B09F00B
S1131FD0C4C003C0882309F4C0C01D3008F4BDC0C8
S1131FE0E0902E01F0902F01F7012281822F992792
S1131FF0F6E096958795FA95E1F7039719F468E06A
S113200070E002C062E070E0822F99279695879570
S11320109695879583709070039719F488E090E003
S113202002C082E090E026E030E0E20EF31E40E0E1
S113203050E020E030E0F701E80FF91F8AEF9FEF4E
S1132040E80EF91E05C08191480F511D2F5F3F4FC7
S113205026173707C4F3F70163818FEF80933902A2
S11320608FB7F894782F20E030E0E7E3F1E0808147
S113207091818417950729F48281861731F1209381
S113208039022F5F3F4F33962430310581F77FBFEC
S1132090909139023FB7F8949F3F21F080912B0132
S11320A08917A9F420912B01822F9927FC01EE0FA7
S11320B0FF1FE80FF91FE95CFE4F518340836283E1
S11320C02F5F237020932B010EC07FBF42C0892F46
S11320D09927FC01EE0FFF1FE80FF91FE95CFE4F83
S11320E0518340836283832F99278FBF0FB7F8945E
S11320F01127C7010E947000FC0190810FBFF701F6
S113210083A5882331F19F3321F5878146812FB739
S1132110F894332760911B0170911C012FBF9927FC
S1132120982F88275527842B952B8617970759F0C6
S1132130878126819927982F88273327822B932BF1
S11321408F5F9F4F31F4F7018385863011F4EE24BD
S1132150FF24F0922F01E0922E018FB7F894992773
S1132160109264018FBF0E94B809B1C080915D01D3
S1132170882361F52091D9013091DA014091DB0186
S11321805091DC01EFB7F894FF276091C40170917E
S1132190C5018091C6019091C701E0904501F0907E
S11321A0460100914701109148016E0D7F1D801F6B
S11321B0911FEFBF2093D9013093DA014093DB01E3
S11321C05093DC0110925D010E9454030E9421028D
S11321D043C00E9421025B016C018FB7F8949927D8
S11321E0109284018FBFAFEFEA2EAFEFFA2EAFEF5C
S11321F00A2FAFE71A2F60E0EBE8F1E0808581FF5A
S11322001CC080819181A281B381A6019501281B04
S1132210390B4A0B5B0BDA01C901248135814681F4
S11322205781281B390B4A0B5B0B2E153F054007C2
S113223051071CF479018A0161E0399631E0E13CEF
S1132240F307E1F6662309F442C01E141F041006C6
S113225011062CF0C601B5010E94960638C0E09222
S1132260D901F092DA010093DB011093DC0181E0E3
S113227080935D01A8019701C601B5010E94540332
S113228026C090916E0180911E01981701F19093E0
S11322901E019923C9F400912C0110912D01609124
S11322A08001C8010E949E07482F5527442379F0D6
S11322B08FEF80931E0160912C0170912D01F80124
S11322C083850E94B70803C08FEF80931E01A896F0
S11322D00FB6F894DEBF0FBECDBFDF91CF911F9133
S11322E00F91FF90EF90DF90CF90BF90AF90089543
S11322F0809132028F3FB1F0282F3327F901E55B3B
S1132300FE4F8081809332028F3F11F4809340020C
S11323108FEF80832F3F31F0822F0E94DC0C81E00D
S113232090E0089580E090E008951F93CF93DF93A9
S1132330CDB7DEB7E0970FB6F894DEBF0FBECDBFC2
S11323401FB7F8944FE050E06FEF70E08BE491E03A
S11323500E94AC178FEF809332028093400281E099
S11323608EBD88E080BF83E083BF8CB59DB54AE70E
S11323702CB53DB52817390708F44150442311F012
S1132380C901F6CF92B782B78917E9F32CB53DB5E9
S113239092B782B78917E9F38CB59DB5821B930B6D
S11323A0409675E0969587957A95E1F79093340277
S11323B08093330213BE83B78EBD8EB580BF12BE29
S11323C01DBC1CBC8FEF86BF86B780937C0080B792
S11323D0992787709070892BD1F7D29AD19AD09A85
S11323E0DA9AD99AD89A15BA8FEF84BBD498DC9824
S11323F01DBC1CBC87B7846087BF8EB5887F846092
S11324008EBD0E9478118823E1F780911401909188
S113241015010196AA27BB2780936A0190936B014B
S1132420A0936C01B0936D018FEF80936201E7E399
S1132430F1E08FEF9FEF918380831282339621E046
S1132440E334F207C1F70E9448026093D8018091F7
S11324501401909115010196AA27BB2780936A0164
S113246090936B01A0936C01B0936D0180B7886069
S113247080BF8BE083BF86EE81BF87B7826087BF52
S11324800E94D1028DEF91E090932F0180932E0151
S11324908E98B89A8C988FEF809373011092C8012C
S11324A01092C9011092CA011092CB01B89AD69A1F
S11324B0D59A8FB7F894992720911B0130911C016C
S11324C08FBF30937901209378010E94740429A767
S11324D03AA74BA75CA76DA77EA78FA798ABDE0191
S11324E09196FE01B99688E001900D928150E1F732
S11324F0DE015196FE01B19688E001900D92815063
S1132500E1F7DE015996FE01719688E001900D9283
S11325108150E1F7AEECB1E0FE01799688E00190DC
S11325200D928150E1F780911D01992790936601E6
S1132530809365018FE18093C3018AE18093D60182
S11325400E94740429A73AA74BA75CA76DA77EA78E
S11325508FA798ABDE019196FE01B99688E00190B1
S11325600D928150E1F7DE011196FE01B19688E0EB
S113257001900D928150E1F7DE011996FE0131962A
S113258088E001900D928150E1F7AEECB1E0FE01DC
S1132590399688E001900D928150E1F7AEECB1E0FC
S11325A0FD0137969C9180818D939083319781E0D2
S11325B0E13DF807B9F781E080935F0110923A0298
S11325C0809367011092CD010E9478118823E1F76E
S11325D0812F99278FBF789480E091E00E94B317F0
S11325E04AE050E060E070E085E00E94A4044AE024
S11325F050E060E070E084E00E94A4048FB7F89497
S1132600482F55274BC087B7992783709070892B23
S113261019F4E5E0F0E013C080B799278770907053
S1132620892BD1F781B792B7891B8C3030F082B7F0
S1132630853F18F4E3E0F0E002C0E2E0F0E087B7A1
S1132640887BC1F480917D008B7FA1F46E9912C0C8
S11326508AB190919A00892B887161F480917400F9
S113266082FD08C0379B03C081E090E005C085E08F
S113267090E002C080E090E025B78E1708F4E82FC0
S1132680FF27E457FF4FE491237E2062E22BE5BF4E
S113269078948895F89485B78F7D85BF80913202B0
S11326A08F3F09F4B0CF282F3327F901E55BFE4FA4
S11326B08081809332028F3F11F4809340028FEF28
S11326C080832F3F09F49FCF4FBF822F0E94DC0CE1
S11326D095CF78941F920F920FB60F9211242F92D8
S11326E03F924F925F926F927F928F929F92AF929E
S11326F0BF92CF92DF92EF92FF920F931F932F938B
S11327003F934F935F936F937F938F939F93AF9375
S1132710BF93CF93DF93EF93FF93C6B5D7B58FB72E
S1132720F894282E0E9489039B012C1B3D0B4427FF
S113273055272B013C01421A530A640A750A8091F9
S11327402801909129018530910521F0069709F01F
S1132750E0C0BFC086E090E09093290180932801F7
S113276031E0332E3092630110922A0180E00E94FE
S11327706104E0916801F091690141AABB27A72D8A
S1132780962D852D80ABC301AA27BB2787A7872D4C
S11327909927AA27BB2786A7E0916801F0916901D0
S11327A085A5882309F484C06081655077274F018B
S11327B0860E971EF4012081E1808281A3809927EF
S11327C0AA27BB27BA2FA92F982F88273327442756
S11327D05527522F442733272227FF240027112768
S11327E08701FF24EE242E293F29402B512BBB24A3
S11327F0CC24DD242A293B294C295D29822B932BC7
S1132800A42BB52B84199509A609B7098383292F0D
S11328103A2F4B2F552722839D0144275527218387
S11328208B2F9927AA27BB278083C09824E0A40173
S113283080E090E00E94C908C09AF4012081E18000
S11328408281A3809927AA27BB27BA2FA92F982F63
S11328508827332744275527522F442733272227F5
S1132860FF24002711278701FF24EE242E293F2966
S1132870402B512BBB24CC24DD242A293B294C2971
S11328805D29822B932BA42BB52B840D951DA61D9E
S1132890B71D8383292F3A2F4B2F552722839D0160
S11328A04427552721838B2F9927AA27BB27808369
S11328B0E0916801F0916901818185FF02C0309245
S11328C04A0183E00E94480687B78F7E87BF8499B8
S11328D07AC01092630181E00E946104E091680172
S11328E0F0916901818185FF0FC087E090E09093AA
S11328F02901809328010E94890320E031E040E00F
S113290050E00E94460403C080E00E94340A849B85
S11329105AC080912A01882391F58091630188230C
S113292071F511E0109363010E94610480B320915A
S11329303102283098F4E0913502E20FFF27E77066
S1132940F070EE0FFF1FEE0FFF1FE352FE4F4082A9
S11329505182628273822F5F2093310210932A0185
S1132960D0937F01C0937E0184992DC09927E4E020
S113297096958795EA95E1F7182F117001C010E03C
S1132980809163018130F9F4109263010E94610423
S113299010922A011123B9F480917E0190917F0154
S11329A0C81BD90B2A9778F480913102882319F037
S11329B08150809331028091680190916901009760
S11329C011F00E947A032FBEFF91EF91DF91CF9116
S11329D0BF91AF919F918F917F916F915F914F9133
S11329E03F912F911F910F91FF90EF90DF90CF9027
S11329F0BF90AF909F908F907F906F905F904F901B
S1132A003F902F900F900FBE0F901F9018957894C1
S1132A101F920F920FB60F9211241F932F933F937F
S1132A204F935F936F937F938F939F93AF93BF93D2
S1132A30EF93FF9387B78F7E87BF78941FB7F8947F
S1132A4080916F0190917001A0917101B091720118
S1132A500097A105B10509F051C08091280190911A
S1132A6029018530910561F18630910530F4833078
S1132A70910549F0049781F51AC087309105F1F06A
S1132A80089751F514C0869B0FC084E090E09093A2
S1132A902901809328010E94890327E030E040E067
S1132AA050E00E94460418C00E944B0A15C00E94C0
S1132AB0D505882389F40E94750A0EC080E00AC0F7
S1132AC089E00E94420981E00E94610483E00E943F
S1132AD0480687E00E94340A8091230190912401E2
S1132AE0019771F482E090E0909324018093230194
S1132AF0DE98DE9A80E00E94270102C00E94A603AD
S1132B00812F99278FBFFF91EF91BF91AF919F9133
S1132B108F917F916F915F914F913F912F911F9171
S1132B200F900FBE0F901F901895ACE2B0E0EBE948
S1132B30F5E10C946817222E332E442E552E662E62
S1132B40772E882E992EFE013196A8E01192AA952F
S1132B50E9F729823A824B825C826D827E828F827F
S1132B609886FE013996B8E01192BA95E9F7A986DC
S1132B70BA86CB86DC86ED86FE860F87188B898124
S1132B809A81AB81BC8189A79AA7ABA7BCA77C011A
S1132B908D018FEF9FEFA0E0B0E0E822F9220A2335
S1132BA01B2389A59AA5ABA5BCA51D0144245524C6
S1132BB089859A85AB85BC858DA39EA3AFA3B8A751
S1132BC05C016D018FEF9FEFA0E0B0E0A822B92275
S1132BD0CA22DB228DA19EA1AFA1B8A53D01882404
S1132BE09924C801B701A60195010E94491769A358
S1132BF07AA38BA39CA3C801B701A40193010E94EB
S1132C0049177B018C01C201B101A60195010E9403
S1132C1049175B016C01C201B101A40193010E9437
S1132C2049173B014C01EA0CFB1C0C1D1D1D89A11D
S1132C309AA1ABA1BCA19D01442755272E0D3F1D90
S1132C40401F511F2A153B054C055D0540F480E0EB
S1132C5090E0A1E0B0E0680E791E8A1E9B1ECA01B6
S1132C60AA27BB27860D971DA81DB91D8D8F9E8F82
S1132C70AF8FB8A3A9013327222789A19AA1ABA1B9
S1132C80BCA1A070B070280F391F4A1F5B1F298F89
S1132C903A8F4B8F5C8FA98CBA8CCB8CDC8CED8CEF
S1132CA0FE8C0F8D18A1FE01719698E011929A95F1
S1132CB0E9F7ED8AFE8A0F8B188F2D813E814F81B3
S1132CC058856DA17EA18FA198A50E9449173B014B
S1132CD04C012D853E854F85588969A57AA58BA51C
S1132CE09CA50E9449172D893E894F89588D260F2E
S1132CF0371F481F591F260D371D481D591D2D8B81
S1132D003E8B4F8B588F6D887E888F88988C2A2DA8
S1132D103B2D4C2D5D2D662D772D882D992DE2E1CF
S1132D20AC960C948417A0E1B0E0E9E9F6E10C94C8
S1132D306817222E332E442E552E662E772E882E7B
S1132D40992E002309F466C088E0FE0131961192A1
S1132D508A95E9F729833A834B835C836D837E8369
S1132D608F829887E0E2E01B1E16CCF52D813E8110
S1132D704F815885602F772767FD7095DA01C90167
S1132D80062E04C0B695A795979587950A94D2F711
S1132D908D879E87AF87B88B04C0220F331F441FD3
S1132DA0551FEA95D2F789819A81AB81BC8104C011
S1132DB0B695A795979587956A95D2F7282B392BC1
S1132DC04A2B5B2B29873A874B875C8729843A8473
S1132DD04B845C846D847E848F8498881BC01D869C
S1132DE01E861F86188A2E2F332727FD309530958F
S1132DF021953F4F8D819E81AF81B88504C0B695E2
S1132E00A795979587952A95D2F789879A87AB874F
S1132E10BC87DCCF222D332D442D552D662D772DE7
S1132E20882D992DE2E160960C948417991B79E022
S1132E3004C0991F961708F0961B881F7A95C9F746
S1132E4080950895AA1BBB1B51E107C0AA1FBB1F95
S1132E50A617B70710F0A61BB70B881F991F5A9522
S1132E60A9F780959095BC01CD01089597FB092E93
S1132E7007260AD077FD04D0E5DF06D000201AF437
S1132E80709561957F4F0895F6F7909581959F4FC2
S1132E900895629FD001739FF001829FE00DF11DA0
S1132EA0649FE00DF11D929FF00D839FF00D749FC0
S1132EB0F00D659FF00D9927729FB00DE11DF91F6C
S1132EC0639FB00DE11DF91FBD01CF0111240895C9
S1132ED02F923F924F925F926F927F928F929F9226
S1132EE0AF92BF92CF92DF92EF92FF920F931F9314
S1132EF0CF93DF93CDB7DEB7CA1BDB0B0FB6F894C5
S1132F00DEBF0FBECDBF09942A88398848885F8404
S1132F106E847D848C849B84AA84B984C884DF8075
S1132F20EE80FD800C811B81AA81B981CE0FD11D59
S1132F300FB6F894DEBF0FBECDBFED010895FB01BF
S1132F40DC0104C08D910190801921F4415050405E
S1132F50C8F7881B990B0895DC0101C06D9341509B
S1132F605040E0F708950F931F93CF93DF938C01A4
S1132F70E0914402F0914502838181FF1FC0C0E0CB
S1132F80D0E00AC0FD0120853185BD01F901099514
S1132F90892B11F0CFEFDFEFF80181918F01A09120
S1132FA04402B0914502882369F7FD0120853185EB
S1132FB0BD018AE0F9010995892B11F0CFEFDFEF0C
S1112FC0CE01DF91CF911F910F910895FFCFA5
S1132FCE4170706C69636174696F6E20626F6F74A7
S1132FDE65642E00010001FFFFFFFF010022FFFFC9
S1052FEEFF00DE
S9030000FC
