S01800006275696C642F6D6963617A2F6D61696E2E73726563E5
S11300000C945E010C9486060C9490060C949A064B
S11300100C94A4060C94AE060C94B8060C94A00C94
S11300200C94C2060C947D010C947D010C940B1B62
S11300300C94A91C0C9450060C9466060C94A20A09
S11300400C943F060C9487120C9489080C947D013F
S11300500C9405090C947D010C947D010C947D0194
S11300600C945B060C94580A0C94370A0C94420ABC
S11300700C944D0A0C946B0A0C941A0A0C947D018E
S11300800C942C0A0C947D010C947D010D132913FE
S1130090351380138613D713F213F8133114EC14A9
S11300A00F152315A516D816301759173E184818DA
S11300B04C184F1857180000211042206330844018
S11300C0A550C660E770088129914AA16BB18CC123
S11300D0ADD1CEE1EFF13112100273325222B5529A
S11300E09442F772D662399318837BB35AA3BDD373
S11300F09CC3FFF3DEE36224433420040114E6646A
S1130100C774A44485546AA54BB528850995EEE5C2
S1130110CFF5ACC58DD55336722611163006D77679
S1130120F6669556B4465BB77AA719973887DFF712
S1130130FEE79DD7BCC7C448E5588668A778400841
S1130140611802282338CCC9EDD98EE9AFF9488962
S113015069990AA92BB9F55AD44AB77A966A711AD9
S1130160500A333A122AFDDBDCCBBFFB9EEB799BB2
S1130170588B3BBB1AABA66C877CE44CC55C222C29
S1130180033C600C411CAEED8FFDECCDCDDD2AAD02
S11301900BBD688D499D977EB66ED55EF44E133EB9
S11301A0322E511E700E9FFFBEEFDDDFFCCF1BBF52
S11301B03AAF599F788F8891A981CAB1EBA10CD12C
S11301C02DC14EF16FE18010A100C230E320045034
S11301D0254046706760B9839893FBA3DAB33DC3A7
S11301E01CD37FE35EF3B1029012F322D232354284
S11301F0145277625672EAB5CBA5A89589856EF537
S11302004FE52CD50DC5E234C324A01481046674D3
S1130210476424540544DBA7FAB79987B8975FE786
S11302207EF71DC73CD7D326F2369106B016576623
S11302307676154634564CD96DC90EF92FE9C8990E
S1130240E9898AB9ABA94458654806782768C01873
S1130250E1088238A3287DCB5CDB3FEB1EFBF98BE6
S1130260D89BBBAB9ABB754A545A376A167AF10AC3
S1130270D01AB32A923A2EFD0FED6CDD4DCDAABDF6
S11302808BADE89DC98D267C076C645C454CA23C13
S1130290832CE01CC10C1FEF3EFF5DCF7CDF9BAFC6
S11302A0BABFD98FF89F176E367E554E745E932E63
S11302B0B23ED10EF01E00081C18141011241FBEEB
S11302C0CFEFD0E1DEBFCDBF11E0A0E0B1E0E6EAC0
S11302D0F4E400E00BBF02C007900D92AA3AB10704
S11302E0D9F713E0AAEAB1E001C01D92A438B1071E
S11302F0E1F70E94A6180C9452220C9400008FB7C8
S1130300F894992708958FBF0895282F9FB7F894DC
S1130310E82FFF27EA51FE4F80818F3F81F4E0915F
S11303207803E21771F40BC02093660304C0FF271F
S1130330EA51FE4F20832093780320E007C025E094
S113034005C0809166038F3F91F7EECF892F9927DF
S11303508FBF822F99270895569857981092E902D3
S113036010920A02539A549A579A80E090E00895A2
S11303708091EA028A3021F480910702843021F0CE
S113038081E08093B601089581E10E948501109275
S1130390B60108952FB7F89433278CB95E9A2FBF0E
S11303A00895FC016115710519F481E090E0089548
S11303B08091270290912802892B19F085E090E022
S11303C0089570930B0360930A03F0932802E0935B
S11303D02702109209021092080281E080930A0217
S11303E05E9A569A808121E030E03093090220938E
S11303F008020E94CA0180E090E008958FB7F89443
S113040099272091C7012E7F2093C7012EE72093BF
S1130410FE018FBF61E070E08EEF91E00E94D10198
S1130420992708951F931FB7F89480917403882324
S113043041F48FE00E948501882319F481E08093C0
S11304407403812F99278FBF1F910895FC01828126
S11304509927582F442781819927482B592BCA0162
S1130460892F99278695869583709070823091059F
S113047059F08330910559F0892B19F420E030E0CC
S113048008C02CE93FEF05C022E030E002C028E0BC
S113049030E0CA0184E0989F812D9927112482308D
S11304A0910559F08330910559F0892B19F480E0B6
S11304B090E008C08CE99FEF05C082E090E002C0A4
S11304C088E090E0280F391F2A5F3F4FCF01820F49
S11304D0931F0895282F9FB7F894662349F0E82FB7
S11304E0FF27EE50FD4F8081882311F021E006C0E4
S11304F0E22FFF27EE50FD4F608320E0892F9927DC
S11305008FBF822F99270895E82F8FB7F894282F4B
S1130510332790E0FF27EE50FD4F8081861709F4C2
S113052091E02FBF892F99270895882311F06E9A9F
S113053008956E980895882311F06F9A08956F981E
S1130540089580E00E949502BA9ABB98B99AB89A25
S11305506C9A80E00E949B026B986A9881E00E94EA
S11305609502709A8DB18C7F8DB908950F931F9366
S1130570CF93DF93182F8FB7F894C82FDD270C2F54
S113058061E080E00E946A02882321F0CFBF85E009
S113059090E024C080918D018823A1F48091AF0163
S11305A0823081F409C082E08093AF0110928D0102
S11305B00E94A102B89AC09810938A0180E00FBFEC
S11305C099270CC08091AF01882369F38FB7F89401
S11305D099271092F2028FBF81E0F1CFDF91CF9182
S11305E01F910F9108951F93182F81E00E94950287
S11305F01FB9779BFECF8FB199271F9108958F92D2
S11306009F92AF92BF92CF92DF92EF92FF920F939D
S11306101F93CF93DF938FB7F8949927C0907003FB
S1130620D09071038090E7029090E802C0913E025E
S1130630D0913F022091CA013091CB01EAE0AE2E65
S1130640B12CAC0EBD1E2A153B0508F459018FBF11
S11306507401EC0EFD1E86010C0F1D1F14C0C11485
S1130660D10419F0F801808101C080E00E94F302F6
S11306708114910411F0F701808321960894E11C00
S1130680F11C0F5F1F4FC5010197C817D90738F335
S113069081E00E949B029FB7F894C114D10431F009
S11306A0CC0EDD1EF60180818FB901C01FB8D09336
S11306B03F02C0933E02892F99278FBF80E090E0CC
S11306C0DF91CF911F910F91FF90EF90DF90CF902A
S11306D0BF90AF909F908F9008952FB7F8943327D1
S11306E05093CB014093CA0190937103809370039C
S11306F07093E8026093E70210923F0210923E0268
S11307002FBF452B29F08FB10E94FF02992708952E
S113071089E00E94850180E090E008958FB7F89405
S113072099271092F4028FBF08957FB7F89462B7A7
S11307302091CD013091CE014091CF015091D00153
S113074006B601FE0FC081B792B7280F311D411DB7
S1130750511D2F5F3F4F4F4F5F4F290F311D411DDB
S1130760511D04C0260F311D411D511D872F99278E
S11307708FBFCA01B90108952F923F924F925F92A1
S11307806F927F928F929F92AF92BF92CF92DF929D
S1130790EF92FF920F931F93CF93DF93CDB7DEB702
S11307A029970FB6F894DEBF0FBECDBF6FB769832C
S11307B0F89420901102309012024090130250904D
S11307C01402662477248824BEE4AB2EA3E8BA2E50
S11307D0CC24DD24EE24FF2400E010E0222D332D70
S11307E0442D552D662D772D882D90E00E94371DC0
S11307F02A833B834C835D836E837F8388879987B9
S1130800822E932EA42EB52E2401350100E20E94DF
S1130810351EA22EB32EC42ED52EA30192015695B9
S11308204795379527952A0D3B1D4C1D5D1D57FF98
S113083005C05F772F5F3F4F4F4F5F4F20931102EB
S1130840309312024093130250931402E9818E2FC5
S113085099278FBFCA01B90129960FB6F894DEBF54
S11308600FBECDBFDF91CF911F910F91FF90EF90FD
S1130870DF90CF90BF90AF909F908F907F906F90BC
S11308805F904F903F902F90089580E090E00895FE
S1130890DF92EF92FF920F931F938FB7F894282F54
S11308A03327D22E91B782B746B7981711F041FF7C
S11308B002C02FBF6AC0809135028823E1F10E94F3
S11308C09503E090EE02F090EF020091F002109197
S11308D0F1022091DF013091E0014091E10150915A
S11308E0E2016E197F09800B910B6217730784076D
S11308F0950720F01092350271E01EC02E0D3F1DA9
S1130900401F511F8091CD019091CE01A091CF0144
S1130910B091D001281B390B4A0B5B0B273E3105E4
S11309204105510540F4822F223010F070E005C0DB
S113093070E082E002C070E086EE682F615000B67D
S113094001FCFDCF82B7681709F46F5F2091CD01D8
S11309503091CE014091CF015091D001DA01C9010B
S11309600196A11DB11D860F911DA11DB11D8217F8
S11309709307A407B50710F4622F609561BFDFBE2B
S1130980772319F08CE00E9485011F910F91FF904D
S1130990EF90DF900895AFB7F894BB27E1E0E093C0
S11309A035026093EE027093EF028093F00290930D
S11309B0F1022093DF013093E0014093E101509371
S11309C0E201AFBF0E944804089580E88093E301E8
S11309D01092060210926A031092650310920202AA
S11309E00895CF93DF93FC0115A6DC019E96ED01DB
S11309F01B821A82198280E886A7DF91CF9108951D
S1130A008FB7F89460914202709143022CB53DB5C2
S1130A1006B602FE04C06F5F7F4F2CB53DB5992723
S1130A208FBF88279927CB01772766274427552727
S1130A30622B732B842B952B0895EF92FF920F93C7
S1130A401F930E9400057B018C0120911F023091AD
S1130A50200240912102509122028091190290912A
S1130A601A02A0911B02B0911C02820F931FA41FB3
S1130A70B51FE216F3060407150730F08217930733
S1130A80A407B50758F005C082179307A407B50754
S1130A90E0F5E816F9060A071B07B8F59C01AD0155
S1130AA02E193F09400B510B213060E8360760E0F6
S1130AB0460760E0560768F180E090E8A0E0B0E007
S1130AC0E80EF91E0A1F1B1FE0921F02F09220027B
S1130AD0009321021093220280E090E8AFEFBFEF71
S1130AE0E80EF91E0A1F1B1F20503048404050409A
S1130AF02093190230931A0240931B0250931C0254
S1130B0020E030E840E050E014C020E030E040E075
S1130B1050E080931F0290932002A0932102B0938F
S1130B2022021092190210921A0210921B021092C1
S1130B301C02A901B7012CB53DB5C9018E199F0945
S1130B4003968417950720F0B9016D5F7F4F02C0AB
S1130B50640F751F6115710511F461E070E0615057
S1130B6070407BBD6ABD80E186BF87B7806187BF67
S1130B701F910F91FF90EF9008950F931F930FB75C
S1130B80F894112760931F0270932002809321022E
S1130B90909322022093190230931A0240931B026D
S1130BA050931C020E941D050FBF1F910F910895C1
S1130BB097B79F7D97BF90E296BF882319F08EB5B3
S1130BC0806402C08EB58F7B8EBD87B7806287BF7D
S1130BD080E090E00895AF92BF92CF92DF92EF92BF
S1130BE0FF920F931F93CF93DF93CDB7DEB7289770
S1130BF00FB6F894DEBF0FBECDBF20E070E0E091E9
S1130C008701F091880132E14DE65CE46FE4809164
S1130C1088019E2F28960FB6F894DEBF0FBECDBF75
S1130C20DF91CF911F910F91FF90EF90DF90CF90C4
S1130C30BF90AF900895DF92EF92FF920F931F93AE
S1130C40D82E7A018B010E94950329E0D29EF001EF
S1130C501124E75BFD4F6083718382839383E48275
S1130C60F582068317838085836080878DE00E94E8
S1130C7085011F910F91FF90EF90DF9008951F92CF
S1130C800F920FB60F9211248F9383B783BF00B6D0
S1130C9000FCFDCF8F910F900FBE0F901F90189501
S1130CA078941F920F920FB60F9211240F900FBEDB
S1130CB00F901F90189578941F920F920FB60F9271
S1130CC011240F900FBE0F901F90189578941F92C7
S1130CD00F920FB60F9211242F933F938F939F93EC
S1130CE02FB7F894332780914202909143020196E2
S1130CF090934302809342022FBF9F918F913F9123
S1130D002F910F900FBE0F901F9018951F920F9266
S1130D100FB60F9211240F900FBE0F901F901895CD
S1130D201F920F920FB60F9211240F900FBE0F90C7
S1130D301F9018951F920F920FB60F9211240F90C7
S1130D400FBE0F901F9018951F920F920FB60F921F
S1130D5011240F900FBE0F901F9018951F920F92A1
S1130D600FB60F9211240F900FBE0F901F9018957D
S1130D701F920F920FB60F9211240F900FBE0F9077
S1130D801F9018951F920F920FB60F9211240F9077
S1130D900FBE0F901F901895E6EBF0E06927660FE1
S1130DA0F11DE60FF11DC895982F802D3196C89539
S1130DB090250895982F8091C201882389F599235D
S1130DC079F531E03093C201809194018093C3019D
S1130DD02091B701822F81708093E4018091990161
S1130DE090919A019093C5018093C4018091B801B8
S1130DF08093C60132273170267EE32FFF27EE0F42
S1130E00FF1FEB56FE4F8081918190939A0180934E
S1130E109901232B2093B70184E10E948501089551
S1130E208091B70180FF02C08B7F01C08D7F8093CA
S1130E30B70108950F931F93082F162F809107026F
S1130E408130D9F0813038F0823009F44AC08330DF
S1130E5009F028C159C0002309F458C110920403B1
S1130E60109203031092EC0210920C0310920B02E6
S1130E70109245021092440239C1002309F046C180
S1130E8080914402909145020E94CC0690934502C1
S1130E908093440282E08093070210930C0314347D
S1130EA009F000C125C18695869503C08091B701DC
S1130EB08695817009F0F6C08091B701992311F0ED
S1130EC0846001C082608093B7018091B701877EFE
S1130ED088608093B7011092B8018FEF80939401DA
S1130EE015C1002309F0DEC060930B028091440217
S1130EF0909145020E94CC0690934502809344024F
S1130F0083E08093070202C18091EC028F3F09F4D1
S1130F10C9C0002309F461C0823008F4C3C0E09161
S1130F200303EE2309F4EBC04E2F4150E42FFF27B7
S1130F30ED5FFC4F82819927382F2227442311F437
S1130F40E2E002C0E42FE150FF27ED5FFC4F828115
S1130F509927282B392B8091440290914502281718
S1130F60390709F09FC080E00E94DA0630910B0235
S1130F708091360220913702982F9F5F963008F0B7
S1130F8090E0921771F0E82FFF27EA5CFD4F32835F
S1130F908F5F80933602863010F0109236020E94E2
S1130FA01202109204031092030394E09093070238
S1130FB01092EC0210920C0310920B021092450254
S1130FC0109244028091C7018D7F8093C701809164
S1130FD0B601882309F49AC084C0823008F44EC054
S1130FE0E0910403FF27ED5FFC4F8281482F5527D2
S1130FF0342F2091B701822F86958695869583702C
S113100099278130910519F00297F9F40EC0277ED3
S113101020612093B701442311F485E001C080E0EE
S11310208093B8013093940110C08091B801843347
S113103060F4E0919901F0919A01E80FF11D408369
S11310408091B8018F5F8093B80180910403E82FE9
S1131050FF27ED5FFC4F62818F5F80930403833031
S113106010F0109204037727809144029091450276
S11310700E94CC069093450280934402809103031E
S1131080E82FFF27ED5FFC4F12838F5F80930303EC
S1131090833010F0109203038091EC028F5F8093F1
S11310A0EC0234C0109204031092030314E0109372
S11310B007021092EC0210920C0310920B02109291
S11310C04502109244028091C7018D7F8093C7012D
S11310D081E00E94DA068091B601882329F01093FA
S11310E007020E94B80112C0002381F081E009CFF9
S11310F08091B701982F917080FDD5CED7CE809185
S113110007039927382F222742E01CCF1F910F9104
S113111008951F920F920FB60F9211242F933F93AD
S11311204F935F936F937F938F939F93AF93BF93EB
S1131130EF93FF935F9B3DC06CB1E0914602F09149
S113114047023097F9F08091720390917303E80F8E
S1131150F91F608301969093730380937203209127
S11311607C0330917D038217930718F11092470294
S1131170109246028091E9028330D9F05798109278
S1131180E90217C06E3719F460E081E010C0809165
S1131190C7016D3721F482608093C7010AC081FFC3
S11311A005C08D7F8093C70180E2682780E00E949C
S11311B01A07FF91EF91BF91AF919F918F917F910A
S11311C06F915F914F913F912F910F900FBE0F90B0
S11311D01F901895982F8D57823068F48091C7011D
S11311E081608093C70180E289278093EB028DE7B9
S11311F08093FE0102C09093FE0161E070E08EEFE7
S113120091E00E94D1019927089578941F920F923A
S11312100FB60F921124FF920F931F932F933F93B6
S11312204F935F936F937F938F939F93AF93BF93EA
S1131230CF93DF93EF93FF9320910802309109023B
S113124080910A0390910B032817390780F4E091E9
S11312502702F0912802E20FF31F80812F5F3F4F96
S113126030930902209308020E94CA01CDC0109253
S113127028021092270210920A025698FFB6F89498
S11312808091C70180FF0EC08E7F8093C70180913B
S1131290EB028093FE0161E070E08EEF91E00E942A
S11312A0D101AFC08091EA02843009F48CC085304A
S11312B040F4823021F18330B8F5813009F09CC0CC
S11312C00DC0863009F48DC0863008F483C08730A1
S11312D009F48EC0883009F08FC091C080911E023D
S11312E00E94EA08082F83E08093EA0260911E02BC
S11312F080917A0390917B030E94CC0610C0809168
S113130069030E94EA08082F83E08093EA0260914F
S1131310690380917A0390917B030E94CC06909399
S11313207B0380937A0366C0E0914802FF27EE0FA7
S1131330FF1FE25DFD4F80810E94EA08082F109193
S11313404802C12FDD27FE01EE0FFF1FE25DFD4FB6
S1131350608180917A0390917B030E94CC069093E4
S11313607B0380937A03209118022F5F2093180245
S1131370113039F58091BE01E091B901F091BA01C3
S1131380E80FF11DE0818F5F8093BE019091BD0154
S1131390981730F482E080932F0240E050E002C0BE
S11313A04E2F5527DE01AA0FBB1FFD01E35DFD4F44
S11313B08081823031F02F3F21F0A25DBD4F4C93EC
S11313C019C084E012C080917A030E94EA08082FB1
S11313D085E00BC080917B030E94EA08082F86E019
S11313E004C00E94FE01082F87E08093EA0202C035
S11313F088E003C0002329F089E08093EA020E9478
S113140012028F2D99278FBFFF91EF91DF91CF911A
S1131410BF91AF919F918F917F916F915F914F9108
S11314203F912F911F910F91FF900F900FBE0F903E
S11314301F9018951F920F920FB60F9211248F933D
S113144080919B0087FF02C080919C008F910F9038
S11314500FBE0F901F90189578941F920F920FB69D
S11314600F9211240F900FBE0F901F90189578942F
S11314701F920F920FB60F9211240F900FBE0F9070
S11314801F90189578941F920F920FB60F92112403
S11314900F900FBE0F901F90189578941F920F9283
S11314A00FB60F9211240F900FBE0F901F90189536
S11314B078941F920F920FB60F9211248F939F93DB
S11314C080918000909181009F918F910F900FBE29
S11314D00F901F90189578941F920F920FB60F9249
S11314E011242F933F938F939F932FB7F89433270F
S11314F0809116029091170201969093170280939F
S113150016022FBF9F918F913F912F910F900FBE85
S11315100F901F901895CF93DF93982F80910A0214
S1131520882319F0CFEFDFEF09C0C92FDD27C7FDEE
S1131530D0958C2F0E94CA015E9BFECFCE01DF9115
S1131540CF9108951F920F920FB60F9211242F93EB
S11315503F934F935F936F937F938F939F93AF9337
S1131560BF93EF93FF9383B783BF00B600FCFDCF17
S113157081B799270196AA27BB272091CD013091E5
S1131580CE014091CF015091D001280F391F4A1F3D
S11315905B1F2093CD013093CE014093CF01509334
S11315A0D00178940E944804FF91EF91BF91AF91CC
S11315B09F918F917F916F915F914F913F912F9167
S11315C00F900FBE0F901F9018950F931F93182F15
S11315D00FB7F89461E080E00E946A02882371F5F5
S11315E010938A0180918D018823A9F58091AF0120
S11315F0823089F588E00CC00E94A1028091AF017D
S1131600882349F481E08093AF01109203028AE0B9
S11316100E9485012AC080911D028F3F31F5E0911F
S11316208C01EE2311F11CC010928B0104C0FF2722
S1131630E35EFD4F108210928C0117C081E090E0B0
S113164002C0880F991F1A95E2F72091AE01282B4A
S11316502093AE010AC08091AF018823E1F6CCCF7C
S113166080918B018F3F19F7DFCF802F99278FBF90
S113167080E090E01F910F9108951F9383E00E94F2
S1131680B6029927182F882319F083E00E94E50AEF
S1131690812F99271F9108952F923F924F925F9225
S11316A06F927F928F929F92AF92BF92CF92DF926E
S11316B0EF92FF920F931F93CF93DF93CDB7DEB7D3
S11316C024970FB6F894DEBF0FBECDBF19821A82DD
S11316D01B821C825B016C0188249924E9E4F2E0FA
S11316E0608561FFADC02081318142815381E480F6
S11316F0F58006811781D601C501821B930BA40BCB
S1131700B50B8E159F05A007B10708F499C060FFBB
S113171003C06D7F608708C02E0D3F1D401F511F01
S1131720208331834283538324E0821629F045E0E9
S1131730841609F08EC045C00E94BC034B015C01B5
S1131740662E272E3324022D0E94BC036B017C01DC
S1131750472E55247724942D88272C2D3327822B2C
S1131760932B9F938F931127102F00270629172956
S11317701F930F9380E091E09F938F930E94771FB4
S11317804B82CC8229828A82842D9927982F88279C
S11317902C2D3327822B932B9F938F932981822F78
S11317A09927982F8827862997299F938F938DE1CE
S11317B091E09F938F930E94771F8DB79EB70C96ED
S11317C039C00E94BC038B017F936F9385E391E042
S11317D09F938F930E94771F0F900F900F900F90FD
S11317E09CE40D3C190710F400E010C0C8018D5CA6
S11317F09C448D5C9C4410F401E008C00A591949CA
S11318000C5C1C4410F402E001C003E011271F9398
S11318100F938DE491E09F938F930E94771F1F9302
S11318200F938DE591E09F938F930E94771F8DB75F
S11318309EB708960FB6F8949EBF0FBE8DBF09C021
S11318400894811C911C399696E08916910409F03C
S113185047CF8DE00E94850124960FB6F894DEBF31
S11318600FBECDBFDF91CF911F910F91FF90EF90ED
S1131870DF90CF90BF90AF909F908F907F906F90AC
S11318805F904F903F902F900895EF92FF920F93A7
S11318901F93CF93DF93182F7B01042F8FB7F894F6
S11318A0C82FDD2760E080E00E948402882321F0B5
S11318B0CFBF80E090E014C0CFBF1064812F992780
S11318C090932A02809329020E94F302182F402F3A
S11318D05527B70180E090E00E946D03812F99277E
S11318E0DF91CF911F910F91FF90EF900895C098D1
S11318F06091C8017091C90141E08FE30E94450CD9
S1131900089582E090E09093FC018093FB0181E0D4
S11319108093060220E030E080918A01843011F443
S113192021E030E0232B29F484E00E94B6028823CE
S113193019F40E94770C089584E00E94E50A089542
S11319401F920F920FB60F9211242F933F934F9330
S11319505F936F937F938F939F93AF93BF93EF9313
S1131960FF938091FB019091FC01019749F482E07F
S113197090E09093FC018093FB010E94810C05C0D0
S1131980809102028F5F80930202FF91EF91BF91D9
S1131990AF919F918F917F916F915F914F913F9103
S11319A02F910F900FBE0F901F9018951F93809149
S11319B0AE01882309F04BC010918A011F3F09F042
S11319C046C060E00E948402882309F440C081E09C
S11319D0809301038091E5018823E1F110920103D2
S11319E085E090E045C0923069F5C09A80918B0102
S11319F020E030E08F3F11F421E030E0232BE9F4C4
S1131A0010938D018F3F19F42FEF30E00DC0282F74
S1131A103327F901E35EFD4F808180938B018F3F73
S1131A2011F410938C0110832093030281E08093BE
S1131A30AF018AE00E94850105C010938D011092C8
S1131A40AF0111C08091AF01882369F00FC081E01C
S1131A5090E00EC080918D019091AF01882319F21E
S1131A60923021F0EFCF80E00E94950280E090E078
S1131A701F9108951F93182F81E090E09093B10176
S1131A808093B0011092E5010E94D60C8FB7F894B0
S1131A9099271093AA018FBF84E00E9485011F91AA
S1131AA008951F93CF93DF939FB7F894C92FDD2731
S1131AB01C2F90918A01981721F0CFBF81E090E00C
S1131AC03AC08FEF80938A013091AE013323F1F451
S1131AD08FB7F89499271092F2028FBF0E94D60C08
S1131AE0CFBF11C020938A0181E090E002C0880F2B
S1131AF0991F4A95E2F7809538233093AE0188E028
S1131B000E9485011FBF80E090E015C080E065E081
S1131B10E32FFF270E94B81E292F492F5527CF01F5
S1131B20042E02C0959587950A94E2F780FDDACFDA
S1131B30822F8F5FEFCFDF91CF911F9108951F9375
S1131B40CF93DF938FB7F894C82FDD271C2F809194
S1131B50FB019091FC01892B29F484E00E94510D32
S1131B60CFBF1EC01092060280910202882311F09A
S1131B70B79904C00E9908C0882319F08150809346
S1131B8002020E94810C0BC081E090E09093FC0162
S1131B908093FB011092020284E00E94510D1FBF4A
S1131BA0DF91CF911F910895FF920F931F93CF93CD
S1131BB0DF93F82E8B018FB7F894C82FDD2760E0F0
S1131BC080E00E948402882321F0CFBF80E090E06F
S1131BD00CC0CFBF8F2D0E94F302812F99270E9442
S1131BE0F302802F0E94F3029927DF91CF911F9176
S1131BF00F91FF9008951F931FB7F89480910102ED
S1131C00882319F460E070E009C060E080916F03FC
S1131C10882309F461E081E06827772780910E0228
S1131C20882319F480E090E00AC090E08091F702E4
S1131C30882309F491E081E09827892F9927762F4A
S1131C406627770F770F770F54E0880F991F5A95FF
S1131C50E1F7826E9262682B792B81E10E94D40DA8
S1131C60812F99278FBF1F9108958FB7F8949927D3
S1131C70609100038FBF85E0689FB0011124625D0D
S1131C807E4F706488E10E94D40D0895EF92FF9214
S1131C901F93CF93DF93E0900F02F0901002F701AF
S1131CA082A59927182F882309F41FE1C0988091F1
S1131CB00002811749F0612F77276F717070606E91
S1131CC0706885E10E94D40D10930002F701108121
S1131CD08FB7F894C82FDD2760E080E00E9484026B
S1131CE0882311F0CFBF12C0CFBF8EE390E0909352
S1131CF02A02809329028EE30E94F3021150412F9D
S1131D00552760E070E0C7010E946D03DF91CF9119
S1131D101F91FF90EF9008950F931F93CF93DF933C
S1131D20EC010FB7F89411270E942602FC018FE3FF
S1131D3080830FBF10926D0310926C0361E082E008
S1131D400E946A02882319F085E090E072C08091B5
S1131D5002038F5F8093020381508B838FB7F894C3
S1131D60082F112762E081E00E948402882329F46D
S1131D700FBF0E948E0381E05BC08FB7F894992750
S1131D8024E02093F3028FBFD0933402C093330234
S1131D900FBFFE013196818129819927982F8827C9
S1131DA03327822B932B80729C7C8983892F9927DC
S1131DB081832981982F882733272164822B932BB1
S1131DC08983892F992781831CA618A619A619AA85
S1131DD018AA1FA680E88EA761E06093F6024091DE
S1131DE03302509134028FB7F894282F332780910F
S1131DF0B0019091B1018830910511F0019711F073
S1131E002FBF15C082E090E09093B1018093B001A0
S1131E10609379035093100240930F021092CC0107
S1131E202FBF0E943D0B882311F40E94460E80E0D0
S1131E309927DF91CF911F910F910895CF93DF934D
S1131E4010928901A0914002B0914102109721F0B3
S1131E5080916B0380FF6DC081E08093890172C023
S1131E609927982F88273327822B932BED014B87B3
S1131E708E83892F99278F832FB7F89433278091E6
S1131E800C0290910D022FBFFD018483892F9927A5
S1131E9085832FB7F894332780918E0190918F0119
S1131EA02FBF8887892F9927898731968181298136
S1131EB09927982F8827332720643868822B932BFF
S1131EC08983892F99278183635F6C936D508091F7
S1131ED09101882351F010929101CD010E948C0E42
S1131EE09927282F8823A9F417C0862F9927909320
S1131EF0320280933102B093B501A093B4018EE015
S1131F000E94850180919101882349F489E090E041
S1131F100AC08FEF80939101822F992704C01092F9
S1131F20150280E090E0892B69F081E00E94850130
S1131F3009C0FD014385878126816C916D506D3107
S1131F40A0F78ECFDF91CF910895809189018823E6
S1131F5069F480914002909141028617970731F409
S1131F6010924102109240020E941E0F0895CF92D7
S1131F70DF92EF92FF920F931F93CF93DF938C0125
S1131F80F62E6A01E22E8FB7F894C82FDD2760E0A1
S1131F9080E00E948402882321F0CFBF80E090E09B
S1131FA01EC0CFBF0F0D111D802F80680E94F30249
S1131FB0F82E16950795802F807C0E94F3020E2D33
S1131FC00AC0EE2DFF27E01BF109EC0DFD1D8081F9
S1131FD00E94F30201500023A1F78F2D9927DF916E
S1131FE0CF911F910F91FF90EF90DF90CF900895C4
S1131FF0CF93DF93CDB7DEB72C970FB6F894DEBF3F
S11320000FBECDBF8FB7F894282FAE014F5F5F4F3F
S1132010DA01E8EFF2E088E001900D928150E1F7F7
S113202080910C0290910D028987892F99278A87C4
S113203080912302909124028B87892F99278C8782
S11320402FBF2CE060E080E691E00E94B70F2C9651
S11320500FB6F894DEBF0FBECDBFDF91CF910895C8
S11320601F93CF93DF93182F8FB7F894C82FDD27D2
S113207060E080E00E948402882321F0CFBF80E0EA
S113208090E005C0CFBF812F0E94F3029927DF9112
S1132090CF911F9108950E94E504C09AC09888E0EA
S11320A00E94301088E00E943010C09A84E00E94A0
S11320B0510D0E949F0D0895CF92DF92EF92FF92EF
S11320C00F931F93CFB6F894DD240E94BC03DC0168
S11320D0CB0166E470E00E94C41E1BE0E12EF12CEB
S11320E0E80EF91EF0927603E09275030E94000553
S11320F000271127A80197010E94BD05CFBE1F919B
S11321000F91FF90EF90DF90CF9008951F93CF939E
S1132110DF938FB7F894C82FDD271C2F8091B0016F
S11321209091B1010897C9F489E00E94301083E0CE
S11321300E94510DC09A81E090E09093B101809388
S1132140B0018FB7F894992723E02093AA018FBF99
S113215084E00E948501CFBF30C0C098809179038C
S1132160882311F085E001C084E00E94301083FDD3
S113217009C080E00E94301083FF04C085E090E035
S113218020E003C083E090E021E09093B1018093CC
S1132190B001C09A1FBF222341F01092CC0183E00A
S11321A00E94510D0E945C1008C00E94000520E4AA
S11321B031E040E050E00E94BD05DF91CF911F91D6
S11321C00895EF92FF920F931F93CF93DF938B01A8
S11321D08091290290912A0286FF40C18F7B8F3320
S11321E009F08EC1C091C801D091C90158815093A2
S11321F0FD018091FB019091FC018530910509F46A
S113220043C08630910509F48AC0029709F01FC1C2
S113221085E090E09093FC018093FB014091E30101
S1132220852F99270196242F3327281739074CF136
S1132230B79906C00E9904C0451B41504093E30171
S11322404091FD014A32E8F44423A1F0BE016F5FDE
S11322507F4F483018F047E050E007C086E090E038
S11322609093FC018093FB01552780E090E00E944D
S11322706D0346C110920602C09A84E00E94510D7B
S1132280E3C00E944B103CC186E090E09093FC01B7
S11322908093FB0180910E02882309F439C0809158
S11322A0F7028823A9F5898185FF32C08F814E8189
S11322B02FB7F894332760912302709124022FBF23
S11322C09927982F88275527842B952B86179707AE
S11322D059F08F812E819927982F88273327822BB5
S11322E0932B8F5F9F4FA1F489818770813081F494
S11322F0C09AC0988AE00E943010C09AC098409159
S1132300FD0147502896BE018FE30E94450CF8C09A
S11323104091FD01475055272896BE01A6CFC09A8B
S113232080910202882339F484E00E94510D809147
S11323300202882311F0B7990AC00E9B08C090913D
S11323406503992321F08091FD018B3038F480914D
S1132350C8019091C9010E94F1043DC0913001F57A
S1132360E0916A03FF27EE0FFF1FEE0FFF1FEF5EE2
S1132370FC4F2081318142815381E091C801F09169
S1132380C90121ABBB27A52F942F832F80ABCA0192
S1132390AA27BB2787A7252F33274427552726A7F6
S11323A080916A039927019668E070E00E94D81E24
S11323B080936A0380916503815080936503882329
S11323C051F08091C8019091C9010E94F1041092CA
S11323D06A03109265038091FD01FE01E80FF11D6F
S11323E0808187FF31C0012B79F169816770E091A9
S11323F0C801F091C901623019F5A0910F02B091A2
S11324001002109709F18091B0019091B1010797E2
S1132410D9F4ED019B8183819817B1F487B78F7E3E
S113242087BF908181E08CA7E90FF11D82913196DD
S113243088A780818F7789A780E00E943A0D04C025
S1132440613011F48BE02AC00E949F0D59C0109294
S11324500602C09A84E00E94510D52C08E3309F0E6
S11324604FC0C09A8091B0019091B1010897C9F40E
S1132470C09889E00E943010C09A83E00E94510DF8
S113248081E090E09093B1018093B0018FB7F8940C
S1132490992723E02093AA018FBF84E00E9485013D
S11324A02FC080917903882349F484E090E09093CD
S11324B0B1018093B0010E94861022C083E00E9483
S11324C0510D83E090E09093B1018093B0010E949C
S11324D0BC03DC01CB0166E371E00E94C41E0BE087
S11324E0E02EF12CE80EF91EF092DE01E092DD01FF
S11324F00E94000500271127A80197010E94BD052D
S1132500DF91CF911F910F91FF90EF9008951F924B
S11325100F920FB60F9211242F933F934F935F9313
S11325206F937F938F939F93AF93BF93EF93FF9397
S11325302FB1E091E702F091E802309739F08091F1
S11325403E0290913F02E80FF91F208380913E02E2
S113255090913F02019690933F0280933E0280E067
S11325600E949B024091CA015091CB0180913E028E
S113257090913F028417950718F40E94FF021CC033
S11325806091E7027091E802809170039091710369
S11325901092E8021092E7021092710310927003F5
S11325A01092CB011092CA0110923F0210923E0287
S11325B02FB120E00E94E110FF91EF91BF91AF9104
S11325C09F918F917F916F915F914F913F912F9147
S11325D00F900FBE0F901F901895AF92BF92CF929D
S11325E0DF92EF92FF920F931F93CF93DF93CDB7B8
S11325F0DEB7A8970FB6F894DEBF0FBECDBFE82FA5
S1132600FF27E531F10508F073C5EA5BFF4FEE0FD4
S1132610FF1F0590F491E02D099480916B038823AA
S113262009F466C521E0E0E4F2E090916B03822FA7
S1132630892339F011821082822F809598239093F8
S11326406B03329632E0E035F30709F451C5220FEB
S1132650ECCFE0918901FF27EE0FFF1FE05CFD4FF7
S1132660118210820E941E0F43C50FB7F8941127E0
S113267081E00E94D80561E0E62EF12CF092B101D0
S1132680E092B0011092B2011092E50110920002A2
S11326900FBF0FB7F89411270E94E504F092FC01D4
S11326A0E092FB011092060289B78F7B89BF80E418
S11326B088BF8AB780628ABF8AB78F7E8ABF89B78C
S11326C0806489BF0FBF8FB7F894082F11278091BA
S11326D0AB019091AC01049719F483E00E9430108F
S11326E00FBF0FB7F8941127C09A80E00E94510DD4
S11326F00FBF8FB7F894992722E02093F302F7C411
S11327008FB7F89499271092F302F9CF8FB7F89402
S11327109927F090AA018FBF63E081E00E948402B0
S1132720882359F10FB7F89411271092B101109230
S1132730B00187B78F7E87BF87B78F7D87BF83E060
S11327400E94510DC09A0FBF0FB7F8941127109231
S1132750FC011092FB010E94E504C09A89B78F7BAB
S113276089BF0FBF1092AC011092AB01DE98DD98C7
S1132770DE9A83E00E94850107C08FB7F8949927F9
S113278022E02093F3028FBF0091330210913402B0
S11327900E948E0380916C0390916D03892B09F044
S11327A0A7C48FEF809391014F2DB80179C38FB7E0
S11327B0F894282F3327122F80917703882301F56B
S11327C081E0809377038091AB019091AC010497F1
S11327D021F481E00E94E50A03C086E00E9485019D
S11327E01FBF86C48FB7F89499271092770387CFB9
S11327F08FB7F894282F33278091AD01882311F0E7
S11328002FBF76C42FBF80B3992756E0969587953E
S11328105A95E1F7182F11709091250280912602A4
S11328208917D9F01917C9F484E090E09093AC01AA
S11328308093AB018FB7F894992721E02093AD01E1
S11328408FBF60E070E08DE10E94D40D0E94F80F0C
S1132850C09AC09882E00E9485011093260287E006
S113286018C48FB7F894992710918A018FBF12303A
S113287009F465C0133030F4112359F0113009F014
S113288037C448C0133009F474C0143009F030C49C
S1132890A0C0C0988FB7F894082F11278091AB017E
S11328A09091AC01029709F0C7C383E090E0909344
S11328B0AC018093AB0168E170E08DE10E94D40D1E
S11328C081E0809325021092AD0180B3992746E000
S11328D0969587954A95E1F78170907080932602CA
S11328E087E00E94850181E00E9430106FE772E06A
S11328F08CE10E94D40D0E94350E0E94FB0D66E50A
S11329007AE287E10E94D40D6FEF70E885E10E94BE
S1132910D40D92C3C09886E00E9430100E94350EF8
S11329200E94FB0D0E94F80FC09AC09883E00E9499
S11329303010C09A81E00E94510D86E0AAC3C0986D
S11329408FB7F894082F112760E080E00E9484027A
S1132950882311F00FBF0AC00FBF83E50E94F30262
S113296080E00E94F30280E00E94F302C09A82E0B9
S11329702DC08FB7F89499272091B0018FBF2430D0
S113298039F0283041F0223001F50E94460EB0C3E0
S11329900E948610ADC3C09889E00E943010C09A8E
S11329A083E00E94510D8FB7F894992721E030E01D
S11329B03093B1012093B0018FBF8FB7F89499275A
S11329C01093AA018FBF84E064C383E00E94510D79
S11329D08FC30E94770C8CC30FB7F89411274091D2
S11329E0CA015091CB016091E7027091E802809195
S11329F07003909171031092E8021092E702109212
S1132A007103109270031092CB011092CA011092BC
S1132A103F0210923E0220E00E94E1100DC32FB746
S1132A20F89433278091030280938D0182E0809390
S1132A30AF012FBF80918D01882309F059C3B89A43
S1132A40C09888E026C3A091C801B091C9011C9127
S1132A509D01210F311DF9018081881F8827881F5E
S1132A60FD0183A7F90180818F77FD0181A72150A2
S1132A703040F9018081FD0180A7A091C801B09187
S1132A80C901FD0132818FB7F89499272091010281
S1132A908FBF222309F490C0832F99279695879599
S1132AA096958795837090708230910541F5878162
S1132AB046812FB7F8943327609123027091240242
S1132AC02FBF9927982F88275527842B952B861756
S1132AD0970719F481E090E06CC0FD01878126819D
S1132AE040E050E09927982F88273327822B932B97
S1132AF08F5F9F4F11F441E050E0CA015AC0039721
S1132B0009F01AC19E012F5F3F4F48EF52E088E061
S1132B10FA010190AF01F90101929F018150C1F7BF
S1132B209E012F5D3F4FAE014F5F5F4F88E0FA017A
S1132B300190AF01F90101929F018150C1F79E01FB
S1132B40275F3F4FAE014F5D5F4F88E0FA01019070
S1132B50AF01F90101929F018150C1F79E012F5EDF
S1132B603F4FAE01475F5F4F88E0FA010190AF012C
S1132B70F90101929F018150C1F79E01275E3F4FE9
S1132B80AE014F5E5F4F88E0FA010190AF01F90199
S1132B9001929F018150C1F748E050E0BE01675E99
S1132BA07F4FCD0106960E94631F892B09F0C4C094
S1132BB003C0882309F4C0C01D3008F4BDC0E090F0
S1132BC0C801F090C901F7012281822F992716E0EC
S1132BD0969587951A95E1F7039719F468E070E0E4
S1132BE002C062E070E0822F9927969587959695AA
S1132BF0879583709070039719F488E090E002C081
S1132C0082E090E026E030E0E20EF31E40E050E087
S1132C1020E030E0F701E80FF91F8AEF9FEFE80E9C
S1132C20F91E05C08191480F511D2F5F3F4F261794
S1132C303707C4F3F70163818FEF80936E038FB777
S1132C40F894782F20E030E0E1EDF1E0808191818B
S1132C508417950729F48281861731F120936E0336
S1132C602F5F3F4F33962430310581F77FBF90911A
S1132C706E033FB7F8949F3F21F08091B301891709
S1132C80A9F42091B301822F9927FC01EE0FFF1FB5
S1132C90E80FF91FEF52FE4F5183408362832F5F89
S1132CA023702093B3010EC07FBF42C0892F9927A0
S1132CB0FC01EE0FFF1FE80FF91FEF52FE4F518387
S1132CC040836283832F99278FBF0FB7F89411270E
S1132CD0C7010E942602FC0190810FBFF70183A562
S1132CE0882331F19F3321F5878146812FB7F894EA
S1132CF0332760918E0170918F012FBF9927982FF0
S1132D0088275527842B952B8617970759F0878199
S1132D1026819927982F88273327822B932B8F5F1F
S1132D209F4F31F4F7018385863011F4EE24FF249C
S1132D30F092C901E092C8018FB7F89499271092D4
S1132D4006028FBF0E949F0DD3C18091FF0188238B
S1132D5061F520910D0330910E0340910F035091C2
S1132D601003EFB7F894FF276091EE027091EF0221
S1132D708091F0029091F102E090DF01F090E00187
S1132D800091E1011091E2016E0D7F1D801F911FE2
S1132D90EFBF20930D0330930E0340930F03509322
S1132DA010031092FF010E94CB040E94950343C0BC
S1132DB00E9495035B016C018FB7F89499271092D8
S1132DC035028FBF0FEFE02E0FEFF02E0FEF002F25
S1132DD00FE7102F60E0E9E4F2E0808581FF1CC07A
S1132DE080819181A281B381A6019501281B390BB1
S1132DF04A0B5B0BDA01C901248135814681578175
S1132E00281B390B4A0B5B0B2E153F054007510756
S1132E101CF479018A0161E0399632E0EF37F30757
S1132E20E1F6662309F464C11E141F04100611069A
S1132E302CF0C601B5010E944C0B5AC1E0920D035F
S1132E40F0920E0300930F031093100381E080931C
S1132E50FF01A8019701C601B5010E94CB0448C136
S1132E609091150280919101981709F441C19093B2
S1132E7091019923D1F40091B4011091B5016091AD
S1132E803102C8010E948C0E482F5527442309F4AF
S1132E902FC18FEF809391016091B4017091B501BE
S1132EA0F80183850E94A50F23C18FEF80939101C0
S1132EB01FC18FB7F894109274032091EA0240E086
S1132EC0283009F441E030E0293009F431E04423AA
S1132ED011F4332351F01092EA02E0914802FF27E3
S1132EE0EE0FFF1FE35DFD4F108299278FBF442330
S1132EF011F4332331F19FB7F894809169038F5F04
S1132F008093690380911E02833479F420913702FF
S1132F1080913602821779F0822F8F5F8093370277
S1132F20863048F01092370206C0A0E0442309F42A
S1132F30A1E071E002C0A0E070E0892F99278FBF63
S1132F4006C0222311F0FF246DC0A0E070E08FB70B
S1132F50F89499272091B6018FBF222341F08FB7AF
S1132F60F89499272AE02093EA028FBF42C08FB7D2
S1132F70F894992760912D0240912F028FBF8FB74B
S1132F80F894282F332750E090913602809137022D
S1132F90981709F451E02FBF552341F5662331F505
S1132FA05FB7F89482E080932D028FB7F894282FAE
S1132FB0332740E09091360280913702981709F444
S1132FC041E02FBF442311F080E006C0E0913702B6
S1132FD0FF27EA5CFD4F828180932E0283E4809375
S1132FE01E0210924802852F99270EC0415042308C
S1132FF010F0FF240CC08FB7F894992725E4209390
S11330001E0221E0209348028FBFB1E0FB2E7723FC
S113301049F08FB7F8949927A093BF018FBF83E13C
S11330200E9485018FB7F894082F11278091EA0236
S11330308A3021F40E94B8010FBF5AC00FBFFF208D
S113304009F456C02FB7F894332710927B031092DB
S11330507A031092180281E08093EA022FBF0E9443
S1133060FE01882309F444C08FB7F894992729E016
S11330702093EA028FBF0E9412023AC00E94AC0160
S11330808FB7F89499271092EA021092070237CB6F
S113309082E10E9485012CC05398549829C0109253
S11330A0BC011092BB018FB7F894992728CB8FB736
S11330B0F89499272091C4013091C5014091E4010D
S11330C08FBF8FB7F894E42FFF27EE0FFF1FEB5647
S11330D0FE4F318320832091B701442311F02B7FCD
S11330E001C02D7F2093B7011092C20199278FBF91
S11330F0A8960FB6F894DEBF0FBECDBFDF91CF9177
S11331001F910F91FF90EF90DF90CF90BF90AF9001
S11331100895809166038F3FB1F0282F3327F9017A
S1133120EA51FE4F8081809366038F3F11F48093B0
S113313078038FEF80832F3F31F0822F0E94ED12AE
S113314081E090E0089580E090E00895FF920F936D
S11331501F93CF93DF93CDB7DEB7E0970FB6F89404
S1133160DEBF0FBECDBFFFB6F89445E150E06FEF70
S113317070E086EE91E00E94701F8FEF80936603EB
S11331808093780381E08EBD88E080BF83E083BFB5
S11331908CB59DB54AE72CB53DB52817390708F419
S11331A04150442311F0C901F6CF92B782B7891771
S11331B0E9F32CB53DB592B782B78917E9F38CB51D
S11331C09DB5821B930B4096A5E096958795AA958D
S11331D0E1F7909368038093670313BE83B78EBDB2
S11331E08EB580BF12BE1DBC1CBC8FEF86BF86B7D8
S11331F080937C0080B7992787709070892BD1F7D2
S1133200D29AD19AD09ADA9AD99AD89A15BA8FEFD3
S113321084BBD498DC981092890010928800809125
S11332207D00846080937D0080918A00887F826025
S113323080938A001DBC1CBC87B7846087BF8EB591
S1133240887F84608EBD0E9489188823E1F780916D
S11332508701909188010196AA27BB2780931102C8
S113326090931202A0931302B093140210922D02B1
S113327010922F028AE08093EA02109218021092B0
S11332801E021092690310927B0310927A0310922B
S1133290740310924802109204031092030384E012
S11332A0809307021092EC0210920C0310920B020E
S11332B01092450210924402109237021092360284
S11332C08BE991E0909381038093800312E006E000
S11332D0609167037091680388279927FCE0660F63
S11332E0771F881F991FFA95D1F720E031EE40E04F
S11332F050E00E94EB1E2150304029B9832F9927BA
S1133300809390001BB9009395001AB820939900FC
S11333108093980010939B0000939D0010929A0054
S113332084E490E090930903809308030E94AC0125
S1133330882309F06AC18FEF8093040220E030E013
S1133340E1EDF1E08FEF9FEF91838083128233965A
S113335041E0ED3DF407C1F70E94BC036093020312
S113336080918701909188010196AA27BB278093B9
S1133370110290931202A0931302B093140280B727
S1133380886080BF8BE083BF86EE81BF87B7826091
S113339087BF0E94480481E393E09093C90180931E
S11333A0C8018E98B89A8C988FEF80931D02109262
S11333B0F2021092F3021092F4021092F502B89AFB
S11333C0D69AD59A8FB7F894992720918E01309187
S11333D08F018FBF30932402209323020E94EB05B8
S11333E029A73AA74BA75CA76DA77EA78FA798AB81
S11333F0DE019196FE01B99688E001900D9281500C
S1133400E1F7DE015196FE01B19688E001900D923C
S11334108150E1F7DE015996FE01719688E0019032
S11334200D928150E1F7A8EFB2E0FE01799688E0B1
S113343001900D928150E1F780919001992790932A
S11334400D0280930C028FE18093ED028AE1809358
S113345000030E94EB0529A73AA74BA75CA76DA719
S11334607EA78FA798ABDE019196FE01B99688E0FE
S113347001900D928150E1F7DE011196FE01B196A3
S113348088E001900D928150E1F7DE011996FE016A
S1133490319688E001900D928150E1F7A8EFB2E0F7
S11334A0FE01399688E001900D928150E1F7A8EF72
S11334B0B2E0FD0137969C9180818D939083319782
S11334C082E0EB3FF807B9F781E0809301021092A4
S11334D06F0380930E021092F7020E9489188823CA
S11334E0E1F78F2D99278FBF78948FB7F894282F01
S11334F03327922F8091EA028A3031F080910702BB
S1133500843011F02FBF04C09FBF80E10E94850169
S113351083E791E00E948E1F4AE050E060E070E093
S113352085E00E941B064AE050E060E070E084E021
S11335300E941B068FB7F894482F55274BC087B7B6
S1133540992783709070892B19F4E5E0F0E013C09B
S113355080B7992787709070892BD1F781B792B77C
S1133560891B8C3030F082B7853F18F4E3E0F0E03B
S113357002C0E2E0F0E087B7887BC1F480917D006F
S11335808B7FA1F46E9912C08AB190919A00892B15
S1133590887161F48091740082FD08C0379B03C078
S11335A081E090E005C085E090E002C080E090E01A
S11335B025B78E1708F4E82FFF27EA54FD4FE4914E
S11335C0237E2062E22BE5BF78948895F89485B732
S11335D08F7D85BF809166038F3F09F4B0CF282F7C
S11335E03327F901EA51FE4F8081809366038F3FB0
S11335F011F4809378038FEF80832F3F09F49FCFDA
S11336004FBF822F0E94ED1295CF8FEF809304025B
S113361021E030E095CE78941F920F920FB60F926E
S113362011242F923F924F925F926F927F928F92CA
S11336309F92AF92BF92CF92DF92EF92FF920F933D
S11336401F932F933F934F935F936F937F938F9326
S11336509F93AF93BF93CF93DF93EF93FF93C6B53D
S1133660D7B58FB7F894282E0E9400059B012C1B18
S11336703D0B442755272B013C01421A530A640A87
S1133680750A8091B0019091B1018530910521F0C6
S1133690069709F0E0C0BFC086E090E09093B101C6
S11336A08093B00131E0332E309205021092B201C2
S11336B080E00E94D805E0910F02F091100241AA27
S11336C0BB27A72D962D852D80ABC301AA27BB2729
S11336D087A7872D9927AA27BB2786A7E0910F02E2
S11336E0F091100285A5882309F484C06081655097
S11336F077274F01860E971EF4012081E180828195
S1133700A3809927AA27BB27BA2FA92F982F8827E8
S1133710332744275527522F442733272227FF24B2
S1133720002711278701FF24EE242E293F29402B4F
S1133730512BBB24CC24DD242A293B294C295D2987
S1133740822B932BA42BB52B84199509A609B709B1
S11337508383292F3A2F4B2F552722839D014427FA
S1133760552721838B2F9927AA27BB278083C098AD
S113377024E0A40180E090E00E94B70FC09AF40115
S11337802081E1808281A3809927AA27BB27BA2FB1
S1133790A92F982F8827332744275527522F4427AA
S11337A033272227FF24002711278701FF24EE2433
S11337B02E293F29402B512BBB24CC24DD242A293C
S11337C03B294C295D29822B932BA42BB52B840DEB
S11337D0951DA61DB71D8383292F3A2F4B2F5527DF
S11337E022839D014427552721838B2F9927AA27BC
S11337F0BB278083E0910F02F0911002818185FF45
S113380002C03092E50183E00E94510D87B78F7E9C
S113381087BF84997AC01092050281E00E94D8057E
S1133820E0910F02F0911002818185FF0FC087E0C3
S113383090E09093B1018093B0010E94000520E0D4
S113384031E040E050E00E94BD0503C080E00E94EA
S11338503A0D849B5AC08091B201882391F58091DE
S11338600502882371F511E0109305020E94D80522
S113387080B320916503283098F4E0916A03E20F45
S1133880FF27E770F070EE0FFF1FEE0FFF1FEF5ED4
S1133890FC4F40825182628273822F5F20936503C2
S11338A01093B201D0932C02C0932B0284992DC0A3
S11338B09927B4E096958795BA95E1F7182F11707A
S11338C001C010E0809105028130F9F410920502E4
S11338D00E94D8051092B2011123B9F480912B02F1
S11338E090912C02C81BD90B2A9778F48091650318
S11338F0882319F081508093650380910F02909181
S11339001002009711F00E94F1042FBEFF91EF9175
S1133910DF91CF91BF91AF919F918F917F916F91E3
S11339205F914F913F912F911F910F91FF90EF90D5
S1133930DF90CF90BF90AF909F908F907F906F90CB
S11339405F904F903F902F900F900FBE0F901F905D
S1133950189578941F920F920FB60F9211241F930B
S11339602F933F934F935F936F937F938F939F9383
S1133970AF93BF93EF93FF9387B78F7E87BF7894FE
S11339801FB7F8948091190290911A02A0911B021A
S1133990B0911C020097A105B10509F051C08091B6
S11339A0B0019091B1018530910561F186309105A6
S11339B030F48330910549F0049781F51AC08730BB
S11339C09105F1F0089751F514C0869B0FC084E06F
S11339D090E09093B1018093B0010E94000527E02C
S11339E030E040E050E00E94BD0518C00E945C1029
S11339F015C00E943D0B882389F40E9486100EC0D6
S1133A0080E00AC089E00E94301081E00E94D8055D
S1133A1083E00E94510D87E00E943A0D8091AB0132
S1133A209091AC01019771F482E090E09093AC0125
S1133A308093AB01DE98DE9A80E00E94E50A02C022
S1133A400E941D05812F99278FBFFF91EF91BF9190
S1133A50AF919F918F917F916F915F914F913F9122
S1133A602F911F910F900FBE0F901F901895ACE2ED
S1133A70B0E0EDE3FDE10C942C1F222E332E442EF6
S1133A80552E662E772E882E992EFE013196A8E0AB
S1133A901192AA95E9F729823A824B825C826D825F
S1133AA07E828F829886FE013996B8E01192BA958B
S1133AB0E9F7A986BA86CB86DC86ED86FE860F8773
S1133AC0188B89819A81AB81BC8189A79AA7ABA7FE
S1133AD0BCA77C018D018FEF9FEFA0E0B0E0E8224E
S1133AE0F9220A231B2389A59AA5ABA5BCA51D0110
S1133AF04424552489859A85AB85BC858DA39EA3D2
S1133B00AFA3B8A75C016D018FEF9FEFA0E0B0E019
S1133B10A822B922CA22DB228DA19EA1AFA1B8A5F9
S1133B203D0188249924C801B701A60195010E948A
S1133B300D1F69A37AA38BA39CA3C801B701A40199
S1133B4093010E940D1F7B018C01C201B101A601EA
S1133B5095010E940D1F5B016C01C201B101A4011A
S1133B6093010E940D1F3B014C01EA0CFB1C0C1D30
S1133B701D1D89A19AA1ABA1BCA19D014427552774
S1133B802E0D3F1D401F511F2A153B054C055D0599
S1133B9040F480E090E0A1E0B0E0680E791E8A1E57
S1133BA09B1ECA01AA27BB27860D971DA81DB91DF8
S1133BB08D8F9E8FAF8FB8A3A9013327222789A1A8
S1133BC09AA1ABA1BCA1A070B070280F391F4A1FE5
S1133BD05B1F298F3A8F4B8F5C8FA98CBA8CCB8C4F
S1133BE0DC8CED8CFE8C0F8D18A1FE01719698E093
S1133BF011929A95E9F7ED8AFE8A0F8B188F2D8121
S1133C003E814F8158856DA17EA18FA198A50E9408
S1133C100D1F3B014C012D853E854F85588969A5B3
S1133C207AA58BA59CA50E940D1F2D893E894F89DD
S1133C30588D260F371F481F591F260D371D481D45
S1133C40591D2D8B3E8B4F8B588F6D887E888F88A6
S1133C50988C2A2D3B2D4C2D5D2D662D772D882D8E
S1133C60992DE2E1AC960C94481FA0E1B0E0EBE39F
S1133C70FEE10C942C1F222E332E442E552E662E3C
S1133C80772E882E992E002309F466C088E0FE0161
S1133C90319611928A95E9F729833A834B835C83A1
S1133CA06D837E838F829887E0E2E01B1E16CCF53D
S1133CB02D813E814F815885602F772767FD709550
S1133CC0DA01C901062E04C0B695A7959795879584
S1133CD00A94D2F78D879E87AF87B88B04C0220FD2
S1133CE0331F441F551FEA95D2F789819A81AB810E
S1133CF0BC8104C0B695A795979587956A95D2F728
S1133D00282B392B4A2B5B2B29873A874B875C87D7
S1133D1029843A844B845C846D847E848F8498885F
S1133D201BC01D861E861F86188A2E2F332727FD4B
S1133D303095309521953F4F8D819E81AF81B88517
S1133D4004C0B695A795979587952A95D2F7898744
S1133D509A87AB87BC87DCCF222D332D442D552D7C
S1133D60662D772D882D992DE2E160960C94481FDD
S1133D70991B79E004C0991F961708F0961B881FB9
S1133D807A95C9F780950895AA1BBB1B51E107C01A
S1133D90AA1FBB1FA617B70710F0A61BB70B881FD7
S1133DA0991F5A95A9F780959095BC01CD01089566
S1133DB097FB092E07260AD077FD04D0E5DF06D04D
S1133DC000201AF4709561957F4F0895F6F7909549
S1133DD081959F4F0895A1E21A2EAA1BBB1BFD01DA
S1133DE00DC0AA1FBB1FEE1FFF1FA217B307E407D6
S1133DF0F50720F0A21BB30BE40BF50B661F771F2E
S1133E00881F991F1A9469F760957095809590950D
S1133E109B01AC01BD01CF010895629FD001739F46
S1133E20F001829FE00DF11D649FE00DF11D929F52
S1133E30F00D839FF00D749FF00D659FF00D992791
S1133E40729FB00DE11DF91F639FB00DE11DF91FB5
S1133E50BD01CF01112408952F923F924F925F929A
S1133E606F927F928F929F92AF92BF92CF92DF9286
S1133E70EF92FF920F931F93CF93DF93CDB7DEB7EB
S1133E80CA1BDB0B0FB6F894DEBF0FBECDBF09947F
S1133E902A88398848885F846E847D848C849B84D6
S1133EA0AA84B984C884DF80EE80FD800C811B81E4
S1133EB0AA81B981CE0FD11D0FB6F894DEBF0FBE13
S1133EC0CDBFED010895FB01DC0104C08D9101908B
S1133ED0801921F441505040C8F7881B990B08956C
S1133EE0DC0101C06D9341505040E0F70895A2E019
S1133EF0B0E0EDE7FFE10C943C1FFE0137966191C1
S1133F007191FA83E983AF018091800390918103D9
S1133F100E94C11FE2E022960C94581F0F931F9336
S1133F20CF93DF938C01E0918003F091810383812F
S1133F3081FF1FC0C0E0D0E00AC0FD0120853185AB
S1133F40BD01F9010995892B11F0CFEFDFEFF801DD
S1133F5081918F01A0918003B0918103882369F737
S1133F60FD0120853185BD018AE0F9010995892B80
S1133F7011F0CFEFDFEFCE01DF91CF911F910F91C1
S1133F800895ABE0B0E0E7ECFFE10C942E1F3C0198
S1133F904B016A01FC0117821682838181FD03C0F3
S1133FA08FEF9FEFDAC1F3013381F40133FD859183
S1133FB033FF81914F01882309F4CCC1853239F450
S1133FC033FD859133FF81914F01853229F4B3018B
S1133FD099270E94C721E7CF00E0442455244AE0F2
S1133FE00032B0F48B3269F08C3228F4803251F014
S1133FF0833271F40BC08D3239F0803349F401609F
S113400028C00260046025C0086023C0006121C08C
S113401007FD29C0282F20532A3078F406FF06C054
S1134020549EC0011124522E580E13C0449EC00148
S11340301124422E480E00620CC08E3221F406FD7B
S113404089C1006406C08C3611F4006802C0883649
S113405051F4F40133FD859133FF81914F0188239D
S113406009F46FC0BDCF982F8554833018F0805267
S1134070833038F424E030E0C20ED31E8FE389830A
S11340800FC0933631F0933799F0933509F05BC044
S113409023C0F6018081898322E030E0C20ED31E62
S11340A07E010894E11CF11C51E0A52EB12C12C034
S11340B0F601E080F18006FD03C06FEF7FEF02C0E0
S11340C0652D772722E030E0C20ED31EC7010E947F
S11340D0BC215C010F7713C0F601E080F18006FD7E
S11340E003C06FEF7FEF02C0652D772722E030E039
S11340F0C20ED31EC7010E94B1215C01006803FFF8
S113410007C01BC0B30180E290E00E94C7214A941B
S1134110842D9927A816B906A8F30FC0F70107FD47
S1134120859107FF81917F01B30199270E94C721DF
S113413041104A940894A108B108A114B10471F77C
S113414006C190E03EC0943611F0993691F507FF10
S11341500AC0F601608171818281938124E030E09C
S1134160C20ED31E0DC0F601808191819C01B9015C
S1134170882777FD8095982F42E050E0C40ED51E25
S11341804FE6B42EB02297FF09C0909580957095A4
S113419061957F4F8F4F9F4F50E8B52A8E010F5F77
S11341A01F4F2AE030E0A8010E94F421A82EA01A93
S11341B04DC0953731F43FEEF32EF0222AE030E083
S11341C023C029EFF22EF0229F3661F0903720F4BD
S11341D0983509F0BFC012C0903739F0983709F00C
S11341E0B9C005C028E030E00FC080E1F82AF4FE31
S11341F002C094E0F92A20E130E006C0F4FE02C0D7
S1134200E6E0FE2A20E132E0F7FE0AC0F601608112
S113421071818281938144E050E0C40ED51E0BC0AD
S1134220F60180819181AC01BA0188279927E2E0E7
S1134230F0E0CE0EDF1E8E010F5F1F4FA8010E941B
S1134240F421A82EA01A8FE7B82EBF20B6FE10C006
S1134250FEEFBF22A51460F42B2D332724FF1AC0D0
S113426022FF02C0052D09C02FEEB222052D01C088
S11342700A2D2B2D332724FF0EC0FE01EA0DF11D5C
S11342808081803319F439EEB32209C00F5F22FF15
S113429006C004C0052D822F867809F00F5FEB2C31
S11342A0FF24E3FC14C0E0FE0FC0041510F05A2CE8
S11342B00BC0542C501A5A0C042D06C0B30180E2D2
S11342C090E00E94C7210F5F0415C0F304C00415D9
S11342D010F4401A01C04424E4FE10C0B30180E38A
S11342E090E00E94C721E2FE1EC0E1FE03C088E503
S11342F090E002C088E790E0B3010CC08E2D867870
S113430091F0E1FE02C08BE201C080E2B7FC8DE2D5
S1134310B30199270E94C72106C0B30180E390E04E
S11343200E94C7215A94A514C0F3AA94FE01EA0D71
S1134330F11D8181B30199270E94C721AA2039F078
S1134340F4CFB30180E290E00E94C7214A94442054
S1134350C1F729CEF30186819781E0E12B960C9475
S11343604A1FFC010590615070400110D8F78095F8
S113437090958E0F9F1F0895FC016150704001902D
S11343800110D8F7809590958E0F9F1F08950F9375
S11343901F93CF93DF938C01EB018B81992781FFCE
S11343A01BC082FF0DC02E813F818C819D81281707
S11343B0390764F4E881F9810193F983E88306C03D
S11343C0E885F985802F0995892B31F48E819F81A9
S11343D001969F838E8302C00FEF1FEFC801DF9108
S11343E0CF911F910F910895FA01AA27283051F116
S11343F0203181F1E8946F936E7F6E5F7F4F8F4F12
S11344009F4FAF4FB1E03ED0B4E03CD0670F781F70
S1134410891F9A1FA11D680F791F8A1F911DA11D55
S11344206A0F711D811D911DA11D20D009F468948E
S11344303F912AE0269F11243019305D3193DEF636
S1134440CF010895462F4770405D4193B3E00FD0EC
S1134450C9F7F6CF462F4F70405D4A3318F0495DD7
S113446031FD4052419302D0A9F7EACFB4E0A695BA
S11344709795879577956795BA95C9F700976105DC
S1134480710508959B01AC010A2E06945795479532
S113449037952795BA95C9F7620F731F841F951F27
S10944A0A01D0895FFCFEA
S11344A6504F534954494F4E20524541443A207B7C
S11344B6783D25642C20793D25647D0A00504F53B0
S11344C64954494F4E3A2028783D25752C20793D8C
S11344D62575290A0052414E444F4D2056414C55EC
S11344E6452052454144593A2025750A0056414C07
S11344F6554520524541443A2025640A004B494E0D
S1134506454D41544943205354415455533A20256B
S1134516640A004170706C69636174696F6E20622D
S11345266F6F7465642E00010001FFFFFFFF010039
S113453622FFFFFFFF7F02B3027F0200000002009A
S10D45460000008B0A0000000000D2
S9030000FC
